:10000000880904000000000000000000000000005B
:1000100000000000000000000000000000000000E0
:1000200000000000000000000000000000000000D0
:1000300000000000000000000000000000000000C0
:1000400000000000000000000000000000000000B0
:101310008F842000F0FF270020A0B70010002000DD
:1013200034A0B700400020004420B700A809020004
:1013300000000000B209020000000000D8FF070012
:10134000A1FF0700B6FF0700FEFF3700FFFF3700D1
:1012A0008A1F78008B1F78008C1F78001CC0B30049
:1012B0007BC0B3001420EF003AFF07001820EF00B6
:1012C0006BC0B3001420EF0036FF07000B5822005C
:1012D0000C0020000AC2B30047FF070038002000BE
:1012E000578D20000E20ED00FEFF3A001020ED008B
:1012F000FCFF3A002BC0B3000A8020006FFF0700FC
:101300004F067800CF0578004F05780000000600F2
:100FA4008A1F78008B1F78000A0037000B457800F1
:100FB4008C45780093FF07000B0037000B45780041
:100FC4008C4578002FFF07000700370010C0B300DE
:100FD400050037006054E100F4FF32006154E10081
:100FE400F6FF3200F9FF3700CF0578004F0578008F
:040FF40000000600F3
:100E0800F0FF2F002AA3B700F0FF2F002CA3B70094
:100E1800F0FF2F006CA3B7003E0037001600AE00AD
:100E2800C702A9001600AF00C702A8005200370089
:100E38001600AE00CC22A9001600AF00CC22A800F4
:100E48004D0037001600AE00CC42A9001600AF00D6
:100E5800CC42A800480037001600AE00DEC2A90048
:100E68001600AF00DEC2A800430037001600AE002F
:100E7800DEE2A9001600AF00DEE2A8003E0037005F
:100E88001600AE00DF02A9001600AF00DF02A800BE
:100E9800390037001600AE00D202A9001600AF00D4
:100EA800D202A800340037001600AE00C182A900A3
:100EB8001600AF00C182A8002F0037001600AE0050
:100EC800DE82A9001600AF00DE82A8002A003700E3
:100ED8001600AE00DEA2A9001600AF00DEA2A80030
:100EE800250037001600AE00C042A9001600AF006A
:100EF800C042A800200037001600AE00C062A9005A
:100F08001600AF00C062A8001B00370010C0B30075
:100F18001A0037006054E100C0FF32006154E1005C
:100F2800C3FF32006254E100C6FF32006354E1009F
:100F3800C9FF32006454E100CCFF32006554E1007F
:100F4800CFFF32006654E100D2FF32006754E1005F
:100F5800D5FF32006854E100D8FF32006954E1003F
:100F6800DBFF32006A54E100DEFF32006B54E1001F
:100F7800E1FF3200E5FF370000C0B30000000600C3
:100C8800F0FF2F002AA3B700F0FF2F002CA3B70016
:100C9800F0FF2F006CA3B7003E0037001600AE002F
:100CA800C722A9001600AF00C722A80052003700CB
:100CB8001600AE00CC62A9001600AF00CC62A800F6
:100CC8004D0037001600AE00CC82A9001600AF0018
:100CD800CC82A800480037001600AE00DEC2A9008A
:100CE8001600AF00DEC2A800430037001600AE00B1
:100CF800DEE2A9001600AF00DEE2A8003E003700E1
:100D08001600AE00DF02A9001600AF00DF02A8003F
:100D1800390037001600AE00D222A9001600AF0035
:100D2800D222A800340037001600AE00C1A2A900E4
:100D38001600AF00C1A2A8002F0037001600AE00B1
:100D4800DF82A9001600AF00DF82A8002A00370062
:100D58001600AE00DFA2A9001600AF00DFA2A800AF
:100D6800250037001600AE00C042A9001600AF00EB
:100D7800C042A800200037001600AE00C062A900DB
:100D88001600AF00C062A8001B00370010C0B300F7
:100D98001A0037006054E100C0FF32006154E100DE
:100DA800C3FF32006254E100C6FF32006354E10021
:100DB800C9FF32006454E100CCFF32006554E10001
:100DC800CFFF32006654E100D2FF32006754E100E1
:100DD800D5FF32006854E100D8FF32006954E100C1
:100DE800DBFF32006A54E100DEFF32006B54E100A1
:100DF800E1FF3200E5FF370000C0B3000000060045
:100FF8008A1F78008B1F78008C1F7800120037003A
:101008000B0578008C05780018FF070019003700D9
:101018000B0578008C057800DEFF07001500370007
:101028000B0578008C057800D5FF07001100370004
:101038000B0578008C05780007FF07000D003700C6
:1010480010C0B3000B0037006054E100ECFF320021
:101058006154E100EEFF320000C2B3000054E10029
:10106800EFFF320000C3B3000054E100F0FF32008C
:10107800F3FF37004F067800CF0578004F0578005A
:04108800000006005E
:100C7400CDFE070020512000204288000020EF0014
:040C84000000060066
:1007AC000800FA002051200000428800F0FF2F00C2
:1007BC00F0418800F0FF2F00E0418800F0FF2F008F
:1007CC00D04188003022EF000000280032A2B70090
:1007DC003062A90010FF07000001BE00803E20001F
:1007EC00010020000FFF07000001BE0008FF0700FA
:1007FC004100DE006400400080007800600047008B
:10080C000A88BE008100E900030035001018D000F2
:10081C001090D200FBFF3700829FBE008A9FBE0063
:10082C000200BE000E0190009E0190000002EB0041
:10083C002EFF07004F05BE004F01BE002007980099
:10084C00310798008A9FBE000200BE000E01900086
:10085C009E0190000002EB00FBFE07004F05BE005E
:10086C008001780001027800600047005001D1003F
:10087C00C080D300640047003008E1002090E10004
:10088C000700310061804100E0004A0080027800DE
:10089C00010378000501780086017800020037001A
:1008AC0003017800840178000280710033003A0063
:1008BC00D9FE07000001BE00803E20000100200090
:1008CC00D8FE07000001BE00D1FE07004100DE008B
:1008DC0000A0EC0080007800600047000A88BE0091
:1008EC008100E900030035001018D0001090D200F0
:1008FC00FBFF3700829FBE000200BE000E0190007D
:10090C009E0190000002EB00F8FE07004F01BE00B4
:10091C0020079800310798000200BE000E019000DD
:10092C009E0190000002EB00C7FE070080017800DA
:10093C0001027800600047005001D100C080D30054
:10094C00640047003008E1002090E100070031000E
:10095C0061804100E0004A008002780001037800C9
:10096C000501780086017800020037000301780049
:10097C00840178003062A80000003700610051004B
:10098C00E0805900C01188003222A90031E2A80091
:10099C003342A80097FE070096FE07000080FA007D
:0409AC000000060041
:0C04240000F42100010020000000060090
:08041C00200020000000060092
:1004000038002000578D20000E20ED00FEFF3A003E
:0C0410001020ED00FCFF3A000000060088
:100430000000FA00020AB800500088000200B8006C
:1004400081004200032AB800810042000080FA00C7
:0404500000000600A2
:1004F8000000FA0002000700D0020400000000001B
:100508000800E20002003A001000070000000600A0
:10051800811F78000200E20002003D006000100028
:10052800E08018000600E20002003D0060011100B2
:10053800E0811900050007004F00E00002003B00C1
:1005480060001000E08018000000060002000700AC
:100558000480BE00000006006022B80006022000E9
:100568000000D0008180D2000482D2008582D200AF
:100578000000A8000202520083825A0003003B00D8
:100588000202420083824A000000A1000603E9003B
:10059800F3FF3A00000006000080FA0000000600A1
:100454000000FA0002000700780204000000000017
:100464000800E20002003A00100007000000060045
:10047400839F68000200E20002003D00600010005B
:10048400E08018000600E20002003D006001110057
:10049400E0811900050007004F00E00002003B0066
:1004A40060001000E0801800000006006022B80020
:1004B400060220000000D0008180D2000482D20015
:1004C4008582D2000000A8000202520083825A00F2
:1004D40003003B000202420083824A000000A100A4
:1004E4000603E900F3FF3A00000006000080FA006A
:0404F40000000600FE
:080F9C0060C0B3000000060074
:100F880008FE070020512000204288000020EF00C2
:040F9800000006004F
:100C600051FE070000522000204288000020EF00C3
:040C7000000006007A
:1005A8000800FA000052200000428800F0FF2F00E7
:1005B800F0418800F0FF2F00E0418800F0FF2F0095
:1005C800D04188002022EF000000280022A2B700B6
:1005D8002062A90091FF07000001BE00803E2000B4
:1005E8000100200090FF07000001BE0089FF0700FE
:1005F8004100DE0064004000800078006000470091
:100608000A88BE008100E900030035001018D000F8
:100618001090D200FBFF3700829FBE008A9FBE0069
:100628000200BE000E0190009E0190000002EB0047
:10063800AFFF07004F05BE004F01BE00200798001E
:10064800310798008A9FBE000200BE000E0190008C
:100658009E0190000002EB007CFF07004F05BE00E2
:100668008001780001027800600047005001D10045
:10067800C080D300640047003008E1002090E1000A
:100688000700310061804100E0004A0080027800E4
:100698000103780005017800860178000200370020
:1006A80003017800840178000280710033003A0069
:1006B8005AFF07000001BE00803E20000100200014
:1006C80059FF07000001BE0052FF07004100DE008D
:1006D80000A0EC0080007800600047000A88BE0097
:1006E8008100E900030035001018D0001090D200F6
:1006F800FBFF3700829FBE000200BE000E01900083
:100708009E0190000002EB0079FF07004F01BE0038
:1007180020079800310798000200BE000E019000E3
:100728009E0190000002EB0048FF0700800178005E
:1007380001027800600047005001D100C080D3005A
:10074800640047003008E1002090E1000700310014
:1007580061804100E0004A008002780001037800CF
:10076800050178008601780002003700030178004F
:10077800840178002062A800000037006100510061
:10078800E0805900401188002222A90021E2A80037
:100798002342A80018FF070017FF07000080FA008F
:0407A8000000060047
:1010BC000200FA008A1F78008A007800D000200015
:1010CC0000479800A000200010479800250037002A
:1010DC00010578005EFE070029003700010078004A
:1010EC001004E00008003200801F78008A9FBE00C8
:1010FC000005780056FE07004F05BE004F00780033
:10110C000020EC00F6FF37001D00370001007800CE
:10111C001004E00008003200801F78008A9FBE0097
:10112C00000578004AFE07004F05BE004F0078000E
:10113C000020EC00F6FF3700600047008A9FBE00DD
:10114C000005780042FE07006100470000057800AA
:10115C003FFE07004F05BE000900370060C0B3001A
:10116C0007003700605CE100D9FF3200615CE100F0
:10117C00DAFF3200625CE100E4FF3200F7FF370077
:0C118C004F0578000080FA00000006000B
:100A5C008A1F78001A85FB002042800000000100EC
:0C0A6C000020EF004F057800000006009D
:100A40000000FA002302AF0001003700FDFF37006D
:0C0A50002A1188000080FA000000060057
:100A24000000FA003302AF0001003700FDFF370079
:0C0A3400AA1188000080FA0000000600F3
:1011C8008A1F78008B1F78006A032800B7FF070082
:1011D800DA408000EEFF0700104288004100DE0080
:1011E80010428800B8002000D7C222000E20ED006F
:1011F800FEFF3A001020ED00FCFF3A00A6FF0700B2
:101208002BC0B300CA812000AAFF0700CF057800D1
:081218004F05780000000600FC
:0810B4008DFE0700000006009C
:100AEC00780045006E00400010007800C04188007E
:100AFC006C00450010007800B04188000000060032
:101198008C1F78008D1F78001D0020001C00200087
:1011A8008005EB0030002000801F780055FE070006
:1011B8002F00B100CF0678004F0678000000060027
:100B0C000000FA008C1F78004EB997000A003700DD
:100B1C000620EF00130037001300200011003700EF
:100B2C00230020000F003700330020000D00370099
:100B3C000620EF000B0037006168E100F4FF320083
:100B4C006868E100F4FF3200000420000068E10056
:100B5C00F3FF3200001020000068E100F2FF3200C9
:100B6C00F3FF3700610056000006780030002000CB
:100B7C000060B80000067800041820004100DD0079
:100B8C00800042000020EF00800878004160DD000A
:100B9C0000004200E20040000020EF0080087800D6
:100BAC004160DD0000004200E40050000020EF0036
:100BBC00800878006210E1000D003A00831F780075
:100BCC000D06780077FF0700CF0178000CA1B70065
:100BDC000621EF001021EF00C418DD0000112000E9
:100BEC001088700011E1A8000C81BF0016003700BE
:100BFC006310E10013003A004160DD000000420088
:100C0C00E400400011007800680070008008780053
:100C1C00831F78000D06780062FF0700CF01780073
:100C2C000EA1B7000A21EF001221EF00C418DD005D
:100C3C00201120001088700013E1A8000E81BF0065
:100C4C0001003700F0FF2F004F0678000080FA00FB
:040C5C00000006008E
:1009B0000400FA009BFE070000079800110798004A
:1009C00096FE07008C1F78008A9FBE000001780009
:1009D0008001EB00803E2000010020000082EB003F
:1009E0009CFE07004F05BE000E0190009E01900086
:1009F0008FFE07000A01BE000002EB0095FE070013
:100A00004F0678000C0178008001EB000002EB003B
:100A100090FE070061005000E08058000080FA005E
:040A200000000600CC
:1010A0008A1F78001AC0B3007FFE07004F05780042
:0410B0000000060036
:100AA8000000FA0061405500004578008A80FB008C
:100AB800300020000008B800004578000218200027
:100AC8000080FB004100DD0000004100E400400020
:100AD8001100780066007000800878000080FA0035
:040AE8000000060004
:101220008A1F78000020EF003042880031428000A1
:10123000208420001008E100090031003A428000BB
:1012400092FF070007FA20000E20ED00FEFF3A0093
:10125000110020006084200010884000F3FF370058
:101260001042800030428800304280006000E1007F
:10127000090036003A42800084FF070007FA200088
:101280000E20ED00FEFF3A001100200060842000D7
:1012900010881000F4FF37004F05780000000600AA
:10108C008B1F78001B00200078FE0700CF0578002E
:04109C00000006004A
:100A78000000FA00618055008005780030002000F1
:100A88000058B80080057800021820004100DD00F9
:100A9800000041000A0878000080FA000000060003
:101350000A8020000B002000230009000B1D7800EC
:041360000000060083
:1013640001802000000028001A000900B01878004D
:04137400000006006F
:020000040001F9
:100000003E2000003E2000003E20000073790000EA
:1000100073200000696E0000697400002064000015
:100020006F6E0000652000003C2000003C200000B6
:040030003C00000090
:04003400007D00004B
:100038003E2000003E2000003E20000061700000CD
:1000480070200000696E00006974000020640000E0
:100058006F6E0000652000003C2000003C2000007E
:040068003C00000058
:10006C00FFFF0000FFFF0000FFFF0000FFFF00008C
:10007C00FFFF0000FFFF0000FFFF0000FFFF00007C
:10008C00FFFF0000FFFF0000FFFF0000FFFF00006C
:10009C00FFFF0000FFFF0000FFFF0000FFFF00005C
:1000AC00FFFF0000FFFF0000FFFF0000FFFF00004C
:1000BC00FFFF0000FFFF0000FFFF0000FFFF00003C
:0200000401F009
:20000000CF000000CF00000007000000A2000000850000007F000000E7000000C1000000ED
:00000001FF
