:02000004000BEF
:10000000FCFF002055170B00FD160B00FD160B0022
:10001000FD160B00FD160B00FD160B00FD160B0068
:10002000FD160B00FD160B00FD160B00FD160B0058
:10003000FD160B00FD160B00FD160B00FD160B0048
:10004000FD160B00FD160B00FD160B00FD160B0038
:10175400FFF7D6FF00F010F8FFF7E4FF00F062F99E
:1017640000F05AF800F01EF9FFF794FFFFF766FF48
:08177400FFF720FFFCE7FEE790
:1016E80081B01CF8019B0BF8019BBBEB0A0FF8D1EA
:0416F80001B0704786
:1015640081B04FF000094FF0000CBDEB0A0F04DC12
:10157400BDEB0B0F01DBD446EA464BF8049BBBEBF7
:101584000A0FFAD1BCEB0A0F05DDE246D9F800B028
:0A1594000BF1040BF1E701B0704702
:1016980081B0CDF800E0012207210020FFF7FCFE11
:1016A800002206210020FFF7F7FE42F280510120B8
:1016B800FFF726FF46F6FE17C0F2180700BF00BF67
:1016C8007F1EFDD100BF00BF00BF04480221FFF705
:1016D800A1FEDDF800E001B0704700BF0000002067
:1014A00081B0CDF800E05FFA81F95FFA82FA1DE0C1
:1014B0005FFA8AF15FFA89F0FFF758FC1FE05FFAE4
:1014C0008AF15FFA89F0FFF76DFB18E05FFA8AF1A5
:1014D0005FFA89F0FFF76AFD11E05FFA8AF15FFABF
:1014E00089F0FFF781FE0AE0012008E00028DFD044
:1014F0000128E4D00228E9D00328EED0F4E7DDF893
:0615000000E001B070479D
:100D6C0081B0CDF800E0A9E0012905D140F20101E4
:100D7C006548FFF7A7FD04E040F201016248FFF768
:100D8C00AFFDBBE0012905D140F220015F48FFF720
:100D9C0099FD04E040F220015C48FFF7A1FDADE0B5
:100DAC00012905D140F208015948FFF78BFD04E0F9
:100DBC0040F208015648FFF793FD9FE0012905D149
:100DCC0040F210015348FFF77DFD04E040F21001A2
:100DDC005048FFF785FD91E0012905D140F2400113
:100DEC004C48FFF76FFD04E040F240014948FFF723
:100DFC0077FD83E0012905D140F210014448FFF74B
:100E0C0061FD04E040F210014148FFF769FD75E017
:100E1C00012905D140F210013F48FFF753FD04E0D2
:100E2C0040F210013C48FFF75BFD67E0012905D15A
:100E3C0040F201013748FFF745FD04E040F20101A3
:100E4C003448FFF74DFD59E0012905D140F220014E
:100E5C003248FFF737FD04E040F220012F48FFF73E
:100E6C003FFD4BE0012905D140F210012B48FFF763
:100E7C0029FD04E040F210012848FFF731FD3DE068
:100E8C00012905D140F201012548FFF71BFD04E0C3
:100E9C0040F201012248FFF723FD2FE0012905D183
:100EAC0040F280011A48FFF70DFD04E040F280018A
:100EBC001748FFF715FD21E0012020E000283FF442
:100ECC0053AF01283FF45EAF02283FF469AF03280B
:100EDC003FF474AF04283FF47FAF05283FF48AAF8A
:100EEC0006283FF495AF0728A0D00828ACD00928D5
:100EFC00B8D00A28C4D00B28D0D0DDE70020DDF80C
:100F0C0000E001B0704700BF00120840801008409C
:100F1C0000100840601008406011084000110840A3
:040F2C002010084049
:1008D00081B0CDF800E0044AC9B2FFF7B1FDDDF800
:0C08E00000E001B0704700BF00041000F1
:1004400081B01446314B984203D8314B984200D3C7
:1004500000E058E02E4BC31A03F01F0303B152E033
:10046000064600F5A0624FF6FF7304EA0303184640
:10047000284B04EA03031B0C40F20008CFB20146EC
:100480001846B8F1080F3ED201231BB203FA08F355
:100490001BB21CB207EA0403A34231D101F440535A
:1004A0008BB14FEA8803F5182C686FF4405304EAC7
:1004B00003032B604FEA8803F51801F440542B68BE
:1004C00023432B601CE04FEA8803F5182C68114B7E
:1004D00004EA03032B604FEA8803F41823680B43F4
:1004E00023604FEA8803D5182C686FF0FF0304EAF5
:1004F00003032B604FEA8803D41823680343236067
:1005000008F10108BDE701B0704700BFC012084004
:08051000001008400000FFFF8D
:1008EC0081B0CDF800E0044AC9B2FFF7A3FDDDF8F2
:0C08FC0000E001B0704700BF00062000C3
:100BA40081B0CDF800E0A9E0012905D140F20201AD
:100BB4006548FFF78BFE04E040F202016248FFF74C
:100BC40093FEBBE0012905D140F280015F48FFF7A5
:100BD4007DFE04E040F280015C48FFF785FEADE055
:100BE400012905D140F220015948FFF76FFE04E0C6
:100BF40040F220015648FFF777FE9FE0012905D116
:100C040040F210015348FFF761FE04E040F2100186
:100C14005048FFF769FE91E0012905D140F24001F7
:100C24004C48FFF753FE04E040F240014948FFF707
:100C34005BFE83E0012905D140F210014648FFF72D
:100C440045FE04E040F210014348FFF74DFE75E015
:100C5400012905D140F204013F48FFF737FE04E0C3
:100C640040F204013C48FFF73FFE67E0012905D14B
:100C740040F204013948FFF729FE04E040F2040180
:100C84003648FFF731FE59E0012905D140F2200131
:100C94003348FFF71BFE04E040F220013048FFF721
:100CA40023FE4BE0012905D140F210012C48FFF747
:100CB4000DFE04E040F210012948FFF715FE3DE067
:100CC400012905D140F201012648FFF7FFFD04E0A8
:100CD40040F201012348FFF707FE2FE0012905D167
:100CE40040F280011C48FFF7F1FD04E040F280016E
:100CF4001948FFF7F9FD21E0012020E000283FF426
:100D040053AF01283FF45EAF02283FF469AF0328D4
:100D14003FF474AF04283FF47FAF05283FF48AAF53
:100D240006283FF495AF0728A0D00828ACD009289E
:100D3400B8D00A28C4D00B28D0D0DDE70020DDF8D5
:100D440000E001B0704700BF001208408010084066
:100D5400C0110840601008400010084020110840ED
:080D64000011084020100840B6
:100FAC0081B0CDF800E0A9E0012905D140F208019B
:100FBC006548FFF787FC04E040F208016248FFF740
:100FCC008FFCBBE0012905D140F220015F48FFF7FF
:100FDC0079FC04E040F220015C48FFF781FCADE0B5
:100FEC00012905D140F201015948FFF76BFC04E0DF
:100FFC0040F201015648FFF773FC9FE0012905D12F
:10100C0040F220015348FFF75DFC04E040F2200160
:10101C005048FFF765FC91E0012905D140F204012D
:10102C004C48FFF74FFC04E040F204014948FFF73D
:10103C0057FC83E0012905D140F202014548FFF736
:10104C0041FC04E040F202014248FFF749FC75E024
:10105C00012905D140F208013D48FFF733FC04E0BB
:10106C0040F208013A48FFF73BFC67E0012905D143
:10107C0040F201013848FFF725FC04E040F2010181
:10108C003548FFF72DFC59E0012905D140F220012C
:10109C003248FFF717FC04E040F220012F48FFF71D
:1010AC001FFC4BE0012905D140F210012B48FFF742
:1010BC0009FC04E040F210012848FFF711FC3DE068
:1010CC00012905D140F220012548FFF7FBFB04E084
:1010DC0040F220012248FFF703FC2FE0012905D143
:1010EC0040F210011E48FFF7EDFB04E040F2100146
:1010FC001B48FFF7F5FB21E0012020E000283FF41E
:10110C0053AF01283FF45EAF02283FF469AF0328C8
:10111C003FF474AF04283FF47FAF05283FF48AAF47
:10112C0006283FF495AF0728A0D00828ACD0092892
:10113C00B8D00A28C4D00B28D0D0DDE70020DDF8C9
:10114C0000E001B0704700BF00120840C011084019
:10115C00A0100840401108406010084000110840E1
:04116C00A011084086
:1011E80081B0CDF800E0A9E0012905D140F28001E5
:1011F8006548FFF769FB04E040F280016248FFF7A9
:1012080071FBBBE0012905D140F210015F48FFF7EF
:101218005BFB04E040F210015C48FFF763FBADE0C4
:10122800012905D140F280015948FFF74DFB04E040
:1012380040F280015648FFF755FB9FE0012905D190
:1012480040F220015348FFF73FFB04E040F2200141
:101258005048FFF747FB91E0012905D140F204010E
:101268004C48FFF731FB04E040F204014948FFF71E
:1012780039FB83E0012905D140F202014548FFF717
:1012880023FB04E040F202014248FFF72BFB75E024
:10129800012905D140F210013F48FFF715FB04E092
:1012A80040F210013C48FFF71DFB67E0012905D11A
:1012B80040F204013948FFF707FB04E040F204015B
:1012C8003648FFF70FFB59E0012905D140F220010C
:1012D8002D48FFF7F9FA04E040F220012A48FFF709
:1012E80001FB4BE0012905D140F210012648FFF728
:1012F800EBFA04E040F210012348FFF7F3FA3DE06F
:10130800012905D140F220012048FFF7DDFA04E069
:1013180040F220011D48FFF7E5FA2FE0012905D129
:1013280040F210011948FFF7CFFA04E040F210012B
:101338001648FFF7D7FA21E0012020E000283FF403
:1013480053AF01283FF45EAF02283FF469AF03288A
:101358003FF474AF04283FF47FAF05283FF48AAF09
:1013680006283FF495AF0728A0D00828ACD0092854
:10137800B8D00A28C4D00B28D0D0DDE70020DDF88B
:1013880000E001B0704700BF00110840A0110840FC
:101398008010084040110840A01008402011084063
:1015080081B0CDF800E011E00846FFF759FF16E07A
:101518000846FFF729FE12E00846FFF739FE0EE0FD
:101528000846FFF749FE0AE0012008E00028EBD052
:101538000128EDD00228EFD00328F1D0F4E7DDF838
:0615480000E001B0704755
:1013C80081B0CDF800E0002300220321FFF798FA4E
:1013D800034A04490A600020DDF800E001B07047C4
:0813E800CD0A0B0038000020C3
:1009080084B0CDF800E01FFA82FB1FFA83FC0022B6
:100918008DF80420ADF8081003904A48FFF766FDEB
:100928000398BDF808109DF80420ADF80410029053
:10093800FFF750FD0298BDF804100025424C2570C1
:100948000025424C2570B0F5E13F06D9404CA04245
:1009580003D83F4CB4FBF0F308E0B0F5E13F04D80E
:100968004FF4E134B4FBF0F300E00123ADF80410D8
:100978000290FFF7D9FD0298BDF8041003F0FF04B8
:10098800E5B2344C25701C0A04F07F04E5B2324C01
:100998002570B0F5E13F06D92F4C247844F0800546
:1009A8002D4C257005E02C4C247804F07F052A4C4A
:1009B8002570ADF80410FFF70DFDBDF804100025F3
:1009C800264C25700BE042F00100C0B20EE042F068
:1009D8000200C0B20AE042F00300C0B206E00129FA
:1009E800F1D00229F3D00329F5D0F4E74FEA8C04BB
:1009F800A4B240EA04044FEACB05ADB2E4B22C43FA
:100A0800E4B204F07F05154C25700025144C2570C0
:100A18000025144C2570144D144C2560144D154CAC
:100A28002560154D154C2560154D164C2560164C46
:100A3800247844F00105144C2570DDF800E004B07A
:100A4800704700BF40180B00F0270F4001240F40EB
:100A580060E3160000240F4001240F4003240F40D8
:100A680004240F4002240F40FFFFFFFF5C0000201A
:100A7800CD0A0B0060000020FFFFFFFF640000208C
:0C0A8800FFFFFFFF6800002030270F4038
:1003F40081B0CDF800E040F2000A81464FEA8A015C
:1004040009EB01010968B1F1FF3F12D009F1340190
:100414004FEA8A03C91809680A4609EB0301096807
:1004240008461146FFF7BCFF0AF1010A1FFA8AFACF
:0A043400E4E7DDF800E001B07047D6
:1003A40082B0CDF800E000F0FF02130902F00F0262
:1003B4001446D8B2FFF778FF012212B2A240ADF87A
:1003C400042000460A469DF8041000F037F8DDF8D2
:0603D40000E002B07047DA
:1002AC0081B027E028484DE028484BE0284849E039
:1002BC00284847E0284845E0284843E0284841E0E2
:1002CC0028483FE028483DE028483BE0284839E0F2
:1002DC00284837E0284835E0284833E0284831E002
:1002EC0028482FE028482DE028482BE0284829E012
:1002FC00284827E00028D5D00128D5D00228D5D011
:10030C000328D5D00428D5D00528D5D00628D5D09B
:10031C000728D5D00828D5D00928D5D00A28D5D07B
:10032C000B28D5D00C28D5D00D28D5D00E28D5D05B
:10033C000F28D5D01028D5D01128D5D01228D5D03B
:10034C001328D5D001B07047001008402010084089
:10035C00401008406010084080100840A010084071
:10036C00C0100840E010084000110840201108405F
:10037C00401108406011084080110840A01108404D
:10038C00C0110840E011084000120840201208403B
:08039C00401208406012084005
:1003DC0081B00448007800F07F010248017001B040
:0803EC00704700BF03240F401D
:1005300081B00448007840F080010248017001B0A9
:08054000704700BF03240F40C7
:1011700081B0CDF800E0002300220321FFF7C4FB7B
:10118000034A04490A600020DDF800E001B070471E
:08119000CD0A0B00380000201D
:1011980081B0CDF800E0002300220321FFF7B0FB67
:1011A800034A04490A600020DDF800E001B07047F6
:0811B800CD0A0B0038000020F5
:1011C00081B0CDF800E0002300220321FFF79CFB53
:1011D000034A04490A600020DDF800E001B07047CE
:0811E000CD0A0B0038000020CD
:10141C0083B0CDF800E0024610460D228DF808206E
:10142C000A228DF809201FE0FFF7B8FF23E00278AD
:10143C002AB10190FFF7B2FF0198401CF7E71AE0C0
:10144C0002782AB10190FFF7A9FF0198401CF7E739
:10145C0002AA1046FFF7A2FF0DF109021046FFF792
:10146C009DFF08E0062007E00029DDD00129DED031
:10147C000229E5D0F6E70020DDF800E003B0704764
:1013A80081B0CDF800E00178CCB2E0B2034C2468FB
:1013B800A0470020DDF800E001B0704738000020A9
:100ACC0082B0CDF800E08DF80400FFF781FC0849F6
:100ADC00097801F02001C9B201B9F8E79DF80410BA
:100AEC0001F0FF0203490A70DDF800E002B0704724
:080AFC0005240F4000240F4007
:100A940082B0CDF800E08DF80400FFF73BFD084973
:100AA400097801F02001C9B201B9F8E79DF80410F2
:100AB40001F0FF0203490A70DDF800E002B070475C
:080AC40005280F4000280F4037
:1005180081B00448007800F07F010248017001B002
:08052800704700BF03280F40DB
:10089000024A117860F3000111707047901308400C
:10088000024A117860F345111170704784130840D3
:1008A000024A117860F3C301117070478013084049
:1008C000024A117860F304111170704783130840D5
:1008B000024A117860F38611117070478313084063
:100B7400024A117860F30411117070478013084021
:100B6400024A117860F30411117070478B13084026
:100B5400024A117860F30001117070478313084052
:100B9400024A117860F345111170704788130840B8
:100B8400024A117860F30411117070478813084009
:100B1400024A117860F30001117070478113084094
:100B0400024A117860F3C7111170704780130840CE
:100B3400024A117860F34101117070479013084024
:100B4400024A117860F3C71111707047841308408A
:100B2400024A117860F34511117070478E13084022
:1005D800024A117860F304111170704783130840C0
:1005E800024A117860F3861111707047831308402E
:1005C800024A117860F304111170704780130840D3
:1005A800024A117860F38201117070478013084085
:1005B800024A117860F3820111707047891308406C
:1005F800024A117860F3451111707047881308405A
:10063800024A117860F3041111707047881308405A
:10064800024A117860F30001117070478113084065
:10062800024A117860F3C7111170704780130840AF
:10060800024A117860F3C3011170704790130840D3
:10061800024A117860F34511117070478E13084033
:10059800024A117860F30001117070478513084012
:10055800024A117860F34511117070478A130840F8
:10054800024A117860F38201117070478A130840DB
:10057800024A117860F34101117070478A130840EC
:10058800024A117860F3C30111707047851308405F
:10056800024A117860F30001117070478313084044
:10065800024A117860F345111170704788130840F9
:10081000024A117860F30411117070478813084080
:10082000024A117860F34511117070478D1308402A
:1007F000024A117860F30411117070478D1308409C
:10080000024A117860F3C7111170704788130840CD
:10083000024A117860F30411117070478D1308405B
:10086000024A117860F3C711117070478413084071
:10087000024A117860F34511117070478A130840DD
:10084000024A117860F38201117070478A130840E0
:10085000024A117860F34101117070478A13084011
:10068800024A117860F3041111707047851308400D
:10069800024A117860F3820111707047891308408B
:10066800024A117860F345111170704788130840E9
:10067800024A117860F3041111707047881308401A
:1006A800024A117860F34511117070478D130840A4
:10070400024A117860F30411117070478D13084088
:1016400081B0CDF800E01048FFF782FF0F48008816
:10165000FFF71CFF0E49088080B28008088041F225
:10166000FE17C0F27A0700BF00BF7F1EFDD100BF8A
:1016700000BF00BFFFF7BCFE06480221FFF7CEFE09
:10168000DDF800E001B0704710190B001A000020CF
:081690003C0000201C000020BA
:1015500081B0CDF800E0FFF705FDDDF800E001B057
:021560007047D2
:100F640000F230011C310A6803490A6000F21801DA
:100F74000A6802490A6070474000002044000020CB
:10148C0081B0CDF800E0FFF777FDDDF800E001B0AA
:02149C00704797
:100F840081B0CDF800E083460548FFF731FA5946B1
:100F94000448FFF7BDFBDDF800E001B0704700BF77
:080FA400A8180B0000580040E2
:1007140081B00123304A13600A2929D3642927D8D8
:1007240000F208040123226863F34102226000F20C
:1007340008040123226863F3C3022260264A126874
:10074400521C01FB02F3254AB2FBF3F3244A136063
:10075400244D2B60022293FBF2F20260041D2A4610
:100764001368022293FBF2F32A461268D21A22601B
:1007740043F6982291422BD347F23052914227D824
:1007840000F208040023226863F34102226000F2AD
:1007940008040123226863F3C30222600E4A12682C
:1007A400521C01FB02F3104AB2FBF3F30C4A136030
:1007B4000C4D2B60022293FBF2F20260041D2A46C8
:1007C4001368022293FBF2F32A461268D21A2260BB
:1007D400044A106801B0704748000020A086010058
:0C07E4004C00002050000020006CDC02E3
:1013F00081B0CDF800E0FFF79BFDDDF800E001B023
:02140000704733
:100F300081B0CDF800E00348FFF7BEFBDDF800E02C
:080F400001B0704700580040A9
:1006B80081B000F208030122196862F30001196091
:0406C80001B07047C6
:1015B80081B0CDF800E000211D4801801D48018858
:1015C8001B480088884213D219480088FFF716FF85
:1015D8004BF67E37C0F2000700BF00BF7F1EFDD16B
:1015E80000BF00BF00BF12490888401C0880E5E71B
:1015F800104801880E4801800D480088002813D93A
:101608000B480088FFF7FAFE4BF67E37C0F200075A
:1016180000BF00BF7F1EFDD100BF00BF00BF04494F
:101628000888401E0880E7E7DDF800E001B0704751
:08163800360000203C000020F8
:1014040081B0CDF800E0002100B2FFF79BFDDDF8CC
:0614140000E001B070478A
:100F480081B0CDF800E0CAB201B20348FFF7BAFB9E
:0C0F5800DDF800E001B0704700580040D8
:1006CC0081B0012A07D100F2080501242B6864F3DC
:1006DC0082032B6006E000F2080500242B6864F30B
:1006EC0082032B600160041D024B1B685B1A2360A4
:0806FC0001B07047500000201E
:10177C0081B0CDF800E01F4B1F4A204C2048006878
:10178C0040F002011E480160012A08D0032A06D04D
:10179C00042A04D0102A02D0302A00D002E01948C2
:1017AC00026002E0012117480160C4F3C00216492F
:1017BC00086862F3C3000860C4F380021249086829
:1017CC0062F382000860C4F340020F49086862F3B8
:1017DC0041000860C4F300020B49086862F3000082
:1017EC000860FFF7D7FE09480360DDF800E001B0A0
:1017FC00704700BFE0010000010000000000000085
:10180C0008E000E00401084008A40040080108407A
:1015A00046F6FE17C0F2180700BF00BF7F1EFDD130
:0815B00000BF00BF00BF70473F
:10181C0081B004490448016004490548016001B0E5
:10182C00704700BF80BB0000540000200000000087
:04183C005800002030
:0816FC0081B0FEE701B0704768
:1017280081B04EF68850CEF20000016841F4700195
:10173800016000BF00BF00BF00BFF1EE100A40F417
:0A1748004000E1EE100A01B0704706
:1017040081B0DFF81000DFF810100860D0F800D0C6
:1017140000F004B800000B0008ED00E000BF01B0C9
:0217240070470C
:1019A80000B5DFF814B0DFF814A0DFF814C0FFF7B3
:1019B80097FE00BD704700BF0000002036000020E1
:0419C80070190B0087
:101A280000B5DFF810B0DFF810A0FFF797FD00BD94
:0C1A3800704700BF000000206C00002080
:101840008500000084000000FFFFFFFF0000000093
:101850000000000000000000000000000000000088
:101860000000000000000000000000000000000078
:101870000000000000100000001000000000000048
:101880000000000000000000000000000000000058
:101890000000000000000000000000000000000048
:0818A000000000000000000040
:1018A80053000000FFFFFFFF0000000000000000E1
:1018B8000000000000000000000000000000000020
:1018C8000000000000000000000000000000000010
:1018D80000000000001000000000000000000000F0
:1018E80000000000000000000000000000000000F0
:1018F80000000000000000000000000000000000E0
:081908000000000000000000D7
:1019100091080B0081080B00A1080B00C1080B0007
:10192000B1080B00750B0B00650B0B00550B0B0082
:10193000950B0B00850B0B00150B0B00050B0B001B
:10194000FFFFFFFFFFFFFFFFFFFFFFFFFFFFFFFFA7
:10195000FFFFFFFFFFFFFFFFFFFFFFFFFFFFFFFF97
:10196000FFFFFFFFFFFFFFFFFFFFFFFFFFFFFFFF87
:101970003E203E203E2073797320696E6974206496
:0A1980006F6E65203C203C203C0007
:02198A00007DDE
:10198C003E203E203E2061707020696E6974206498
:0A199C006F6E65203C203C203C00EB
:00000001FF
