:10000000FCFF0020451C0000FD1B0000FD1B000044
:10001000FD1B0000FD1B0000FD1B0000FD1B000080
:10002000FD1B0000FD1B0000FD1B0000FD1B000070
:10003000FD1B0000FD1B0000FD1B0000FD1B000060
:10004000FD1B0000FD1B0000FD1B0000FD1B000050
:10005000FD1B0000FD1B0000FD1B0000FD1B000040
:10006000FD1B0000FD1B0000FD1B0000FD1B000030
:10007000FD1B0000FD1B0000FD1B0000FD1B000020
:10008000FD1B0000FD1B0000FD1B0000FD1B000010
:10009000FD1B0000FD1B0000FD1B0000FD1B000000
:1000A000FD1B0000FD1B0000FD1B0000FD1B0000F0
:1000B000FD1B0000FD1B0000FD1B0000FD1B0000E0
:1000C000FD1B0000FD1B0000FD1B0000FD1B0000D0
:1000D000FD1B0000FD1B0000FD1B0000FD1B0000C0
:1000E000FD1B0000FD1B0000FD1B0000FD1B0000B0
:1000F000FD1B0000FD1B0000FD1B0000FD1B0000A0
:101C440000F010F8FFF7DCFF00F052FBFFF7EEFFA7
:101C540000F000FBFFF78AFFFFF758FFFFF70EFFC6
:041C6400FCE7FEE7B4
:101A4C0081B01CF8019B0BF8019BBBEB0A0FF8D182
:041A5C0001B070471E
:101BC00081B04FF000094FF0000CBDEB0A0F04DCB0
:101BD000BDEB0B0F01DBD446EA464BF8049BBBEB95
:101BE0000A0FFAD1BCEB0A0F05DDE246D9F800B0C6
:0A1BF0000BF1040BF1E701B07047A0
:101B700081B0CDF800E0012207210020FFF7B6FE7A
:101B8000002206210020FFF7B1FE42F28051012021
:101B9000FFF732FF44F67D77C0F2120700BF00BFA7
:101BA0007F1EFDD100BF00BF00BF04480221FFF728
:101BB000D1FEDDF800E001B0704700BF1C0000203E
:1018EC0081B0CDF800E05FFA81F95FFA82FA1DE071
:1018FC005FFA8AF15FFA89F0FFF7DAFC1FE05FFA12
:10190C008AF15FFA89F0FFF7BBFD18E05FFA8AF104
:10191C005FFA89F0FFF79CFE11E05FFA8AF15FFA3B
:10192C0089F0FFF7BDFB0AE0012008E00028DFD0BA
:10193C000128E4D00228E9D00328EED0F4E7DDF842
:06194C0000E001B070474D
:1012BC0081B0CDF800E0A9E0012905D140F201018F
:1012CC006548FFF7CDFD04E040F201016348FFF7EC
:1012DC005FFEBBE0012905D140F240016048FFF7F9
:1012EC00BFFD04E040F240015E48FFF751FEADE067
:1012FC00012905D140F201015948FFF7B1FD04E085
:10130C0040F201015748FFF743FE9FE0012905D148
:10131C0040F220015448FFF7A3FD04E040F2200105
:10132C005248FFF735FE91E0012905D140F28001CA
:10133C004D48FFF795FD04E040F280014B48FFF764
:10134C0027FE83E0012905D140F240014648FFF712
:10135C0087FD04E040F240014448FFF719FE75E0B8
:10136C00012905D140F280014148FFF779FD04E0E5
:10137C0040F280013F48FFF70BFE67E0012905D1E1
:10138C0040F210013A48FFF76BFD04E040F2100107
:10139C003848FFF7FDFD59E0012905D140F2040161
:1013AC003548FFF75DFD04E040F204013348FFF7D8
:1013BC00EFFD4BE0012905D140F208012E48FFF763
:1013CC004FFD04E040F208012C48FFF7E1FD3DE041
:1013DC00012905D140F220011F48FFF741FD04E02F
:1013EC0040F220011D48FFF7D3FD2FE0012905D164
:1013FC0040F210011848FFF733FD04E040F21001F1
:10140C001648FFF7C5FD21E0012020E000283FF43D
:10141C0053AF01283FF45EAF02283FF469AF0328B5
:10142C003FF474AF04283FF47FAF05283FF48AAF34
:10143C0006283FF495AF0728A0D00828ACD009287F
:10144C00B8D00A28C4D00B28D0D0DDE70020DDF8B6
:10145C0000E001B0704700BF414C0040434C0040DD
:10146C00404C0040424C0040004C0040024C0040BC
:10147C00014C0040034C0040204C0040224C0040EA
:100E6C0081B0CDF800E0002424B240F240031BB264
:100E7C0040F2040212B242EA03031BB240F2010236
:100E8C0012B243EA020293B2002210B4FFF7D4FC70
:0A0E9C0001B0DDF800E001B070477E
:1008440083B0CDF800E08DB20146D0B2BDF90C20E2
:1008540001F0010414B12F02BFB200E0AFB28F4C1B
:100864000C1B640965018D4C6419A0468C4CA04294
:1008740007D108F10406FD43ADB234882C4034801E
:1008840007E0884CA04204D108F104052C883C43BD
:100894002C8040F2010403EA0404A4B23CB108F140
:1008A4000606FD43ADB234882C4034800AE040F2A1
:1008B400020403EA0404A4B224B108F106052C8856
:1008C4003C432C8040F2040403EA0404A4B23CB187
:1008D40008F10806FD43ADB234882C4034800AE0A8
:1008E40040F2080403EA0404A4B224B108F10805A0
:1008F4002C883C432C8040F2100403EA0404A4B284
:100904003CB108F11806FD43ADB234882C40348064
:100914000AE040F2200403EA0404A4B224B108F17A
:1009240018052C883C432C8040F2400403EA04045C
:10093400A4B23CB108F11A06FD43ADB234882C4090
:1009440034800AE040F2800403EA0404A4B224B12F
:1009540008F11A052C883C432C8003F48074A4B25B
:100964007CB908F10A06FD43ADB234882C403480CA
:1009740008F10C06FD43ADB234882C4034800020CD
:1009840087E01F2A01DD012083E0FFF7ADFE002090
:10099400B9B2C7B24046102F80F07A8021FA07F42A
:1009A400A4B204F00104A4B2002C00F06E8000F2A2
:1009B4000A06CD43ADB234882C40348000F20C06D4
:1009C400CD43ADB234882C40348003F48064A4B2A7
:1009D4002CB1ADF806100024ADF808400DE003F486
:1009E4000064A4B22CB10024ADF80640ADF80810A0
:1009F40003E0ADF80610ADF8081000F20A063588D9
:100A0400BDF8064045EA0404348000F20C0635883B
:100A1400BDF8084045EA04043480234C041B6409EF
:100A2400ADF80440214CA24218D0BDF80440E400C3
:100A3400A4B265001E4C65197C08E4B264002E194A
:100A440007F00104E4B2E5002DB240F2FF04AC402B
:100A5400A4B2E543ADB234882C403480BDF80440E0
:100A6400E400A4B26500124C65197C08E4B2640089
:100A74002E1907F00104E4B2E5002DB294B204FA91
:100A840005F5ADB234882C4334807F1CFFB282E775
:100A94000020DDF800E003B0704700BF004C0040C8
:100AA4000000000001000000004C004000000000B5
:040AB40008500040A6
:1006EC0081B042F652510348018002210248018038
:0C06FC0001B07047005000400250004068
:100F9C0081B0CDF800E0002424B240F240031BB233
:100FAC0040F2040212B242EA03031BB240F2010205
:100FBC0012B243EA020293B2012210B4FFF73CFCD6
:0A0FCC0001B0DDF800E001B070474D
:10148C0081B0CDF800E0A9E0012905D140F20801B6
:10149C006548FFF7E5FC04E040F208016348FFF7FC
:1014AC0077FDBBE0012905D140F280016048FFF7D0
:1014BC00D7FC04E040F280015E48FFF769FDADE027
:1014CC00012905D140F204015B48FFF7C9FC04E097
:1014DC0040F204015948FFF75BFD9FE0012905D15B
:1014EC0040F220015648FFF7BBFC04E040F220011B
:1014FC005448FFF74DFD91E0012905D140F28001E0
:10150C004F48FFF7ADFC04E040F280014D48FFF777
:10151C003FFD83E0012905D140F240014848FFF727
:10152C009FFC04E040F240014648FFF731FD75E0B6
:10153C00012905D140F240014348FFF791FC04E03A
:10154C0040F240014148FFF723FD67E0012905D136
:10155C0040F240013648FFF783FC04E040F24001C2
:10156C003448FFF715FD59E0012905D140F204017B
:10157C003548FFF775FC04E040F204013348FFF7EF
:10158C0007FD4BE0012905D140F208012E48FFF779
:10159C0067FC04E040F208012C48FFF7F9FC3DE041
:1015AC00012905D140F220012148FFF759FC04E044
:1015BC0040F220011F48FFF7EBFC2FE0012905D179
:1015CC0040F210011A48FFF74BFC04E040F2100106
:1015DC001848FFF7DDFC21E0012020E000283FF453
:1015EC0053AF01283FF45EAF02283FF469AF0328E4
:1015FC003FF474AF04283FF47FAF05283FF48AAF63
:10160C0006283FF495AF0728A0D00828ACD00928AD
:10161C00B8D00A28C4D00B28D0D0DDE70020DDF8E4
:10162C0000E001B0704700BF214C0040234C00404B
:10163C00414C0040434C0040404C0040424C004068
:10164C00004C0040024C0040014C0040034C004058
:10165C0081B0CDF800E0A9E0012905D140F20201EA
:10166C006548FFF7FDFB04E040F202016348FFF719
:10167C008FFCBBE0012905D140F280016048FFF7E7
:10168C00EFFB04E040F280015E48FFF781FCADE027
:10169C00012905D140F240015948FFF7E1FB04E074
:1016AC0040F240015748FFF773FC9FE0012905D138
:1016BC0040F220015448FFF7D3FB04E040F2200134
:1016CC005248FFF765FC91E0012905D140F2400139
:1016DC004D48FFF7C5FB04E040F240014B48FFF7D3
:1016EC0057FC83E0012905D140F280014648FFF701
:1016FC00B7FB04E040F280014448FFF749FC75E079
:10170C00012905D140F220014148FFF7A9FB04E073
:10171C0040F220013F48FFF73BFC67E0012905D16F
:10172C0040F201013C48FFF79BFB04E040F2010151
:10173C003A48FFF72DFC59E0012905D140F204018C
:10174C003548FFF78DFB04E040F204013348FFF706
:10175C001FFC4BE0012905D140F208012E48FFF790
:10176C007FFB04E040F208012C48FFF711FC3DE040
:10177C00012905D140F280012948FFF771FB04E0F3
:10178C0040F280012748FFF703FC2FE0012905D127
:10179C0040F240012248FFF763FB04E040F24001B5
:1017AC002048FFF7F5FB21E0012020E000283FF462
:1017BC0053AF01283FF45EAF02283FF469AF032812
:1017CC003FF474AF04283FF47FAF05283FF48AAF91
:1017DC0006283FF495AF0728A0D00828ACD00928DC
:1017EC00B8D00A28C4D00B28D0D0DDE70020DDF813
:1017FC0000E001B0704700BF404C0040424C00403C
:10180C00214C0040234C0040804C0040824C004056
:10181C00604C0040624C0040014C0040034C0040C6
:08182C00204C0040224C00405A
:1010AC0081B0CDF800E0A9E0012905D140F208019A
:1010BC006548FFF7D5FE04E040F208016348FFF7EE
:1010CC0067FFBBE0012905D140F220016048FFF722
:1010DC00C7FE04E040F220015E48FFF759FFADE087
:1010EC00012905D140F210015948FFF7B9FE04E07F
:1010FC0040F210015748FFF74BFF9FE0012905D143
:10110C0040F220015048FFF7ABFE04E040F2200112
:10111C004E48FFF73DFF91E0012905D140F2400117
:10112C004948FFF79DFE04E040F240014748FFF7B5
:10113C002FFF83E0012905D140F280014248FFF7DF
:10114C008FFE04E040F280014048FFF721FF75E07C
:10115C00012905D140F220013F48FFF781FE04E050
:10116C0040F220013D48FFF713FF67E0012905D14C
:10117C0040F202013848FFF773FE04E040F202012E
:10118C003648FFF705FF59E0012905D140F204016B
:10119C003148FFF765FE04E040F204012F48FFF7E9
:1011AC00F7FE4BE0012905D140F208012A48FFF770
:1011BC0057FE04E040F208012848FFF7E9FE3DE045
:1011CC00012905D140F280012548FFF749FE04E0D2
:1011DC0040F280012348FFF7DBFE2FE0012905D107
:1011EC0040F240011E48FFF73BFE04E040F2400194
:1011FC001C48FFF7CDFE21E0012020E000283FF441
:10120C0053AF01283FF45EAF02283FF469AF0328C7
:10121C003FF474AF04283FF47FAF05283FF48AAF46
:10122C0006283FF495AF0728A0D00828ACD0092891
:10123C00B8D00A28C4D00B28D0D0DDE70020DDF8C8
:10124C0000E001B0704700BF804C0040824C004071
:10125C00214C0040234C0040014C0040034C00400A
:08126C00204C0040224C004020
:1019F80081B0CDF800E015E00846FFF737FC1CE0A1
:101A08000846FFF745FC18E00846FFF743FF14E0D7
:101A18000846FFF71BFF10E00846FFF729FF0CE018
:101A280001200AE00028E7D00128E9D00228EBD0FD
:101A38000328EDD01028EFD0F2E7DDF800E001B080
:021A48007047E5
:1012740081B0CDF800E0FFF7ADFE044A04490A60EE
:101284000020DDF800E001B0704700BFD50D00007C
:0412940054000020E2
:100FD80081B0CDF800E084460B4A0C490A600C4AFF
:100FE8000C490A600C4A0D490A600D4A0D490A600D
:100FF8000D48FFF7BBFD61460C48FFF785FDDDF89E
:1010080000E001B0704700BFD50D0000840000204B
:10101800FFFFFFFF88000020FFFFFFFF8C0000207C
:10102800FFFFFFFF90000020AC1D000000180040EB
:100B740081B0CDF800E040F2000A814609F1D801C5
:100B840009788A453AD20C210AFB01F109EB0101EB
:100B94008B460BF1080109781F2915D10BF10801C7
:100BA4000978CCB20BF1060109888BB20BF1040170
:100BB40009888AB2DBF80010084691B2002210B40A
:100BC400FFF73EFE01B014E00BF108010978CCB246
:100BD4000BF1060109888BB20BF1040109888AB272
:100BE400DBF80010084691B2FF2210B4FFF728FE8C
:100BF40001B00AF1010A5FFA8AFABFE7DDF800E002
:040C040001B0704784
:100B100081B0CDF800E007460C463846FFF7D0FC20
:100B200040F280013846FFF7D3FC40F2000138461E
:100B3000FFF7A8FC40F200013846FFF7B1FC40F295
:100B400000013846FFF7D0FC40F200013846FFF7BD
:100B5000ABFD40F200013846FFF7B8FD21463846AC
:100B6000FFF7E8FC3846FFF795FDDDF800E001B03F
:020B70007047CC
:0E04C00081B0018841F00101018001B0704758
:1004D00081B003884FF63F7203EA0202028002886D
:0804E0000A43028001B07047DD
:1004840081B031B903884DF6FF7203EA020202809B
:0C04940002E002880A43028001B07047B9
:1004A00081B0B1F5006F03D102880A43028005E0F4
:1004B00003884FF2FF7203EA0202028001B0704724
:1004E80081B019E0038847F6FF7203EA020202802E
:1004F80019E0028842F40042028002880A4302801E
:1005080011E0028842F40042028003884BF6FF7231
:1005180003EA0202028006E00029E3D0B1F5804F29
:0A052800E7D00029EDD001B07047C4
:1006A80081B0B1F5807F04D1028842F48072028063
:1006B80005E003884FF6FF6203EA0202028001B0F8
:0206C800704779
:1006CC0081B0B1F5805F03D102880A43028005E056
:1006DC0003884EF6FF7203EA0202028001B07047F3
:1005340088B0CDF800E005460E4604AA1046FFF741
:10054400D3FE04AA11462846FFF77EFF00EE900A68
:10055400F8EE600A00EE106AB8EE400A80EE800AF7
:10056400B0EE401A01AA1046FFF716FFDDED010AAE
:10057400FCEE600A10EE902A92B291B2414A00EE6B
:10058400902A20EE200ABCEE400A10EE100A80B237
:1005940005F2080423884FF6FE7203EA0202228061
:1005A40010292ED905F208031A8842F001021A8094
:1005B400B3EE000A81EE000ABCEE400A10EE102AE7
:1005C40092B2ADF80820B3EE000AC1EE000AB3EE11
:1005D400000A81EE000ABCEE400A10EE102A92B224
:1005E40000EE102AB8EE400A70EEC00AB3EE000A1C
:1005F40020EE800ABCEE400A10EE102A92B2ADF84A
:100604000A2020B90022ADF80C20284616E0012467
:100614002946242C11D263001B4AD2181288904216
:1006240008D2621E12B25300184AD2181288ADF8CA
:100634000C2002E0641CE4B2EBE70846831D0022B0
:100644001A80841D2388BDF8082043EA0202228010
:1006540000F208031A8802F001021A8000F208046A
:10066400BDF80C2013029BB2BDF80A20120192B20D
:1006740013439BB222881A432280DDF800E008B0BD
:10068400704700BF00401C46C62100000E22000037
:1002EC0082B0CDF800E004462849096801F4E061C9
:1002FC00090A08462549096801F0E061090E0A4619
:10030C00214601911146FFF751FF019908601F49E1
:10031C00096801F07001090908461C49096801F4D3
:10032C00E001090D0A4604F2080101911146FFF79C
:10033C003DFF019908601549096801F07001090930
:10034C0008461249096801F0E041090F0A4604F217
:10035C000C0101911146FFF729FF019908600B4927
:10036C00096801F0070108460849096801F4E02111
:10037C00090C0A46211D01911146FFF717FF01993F
:10038C000860DDF800E002B0704700BF08040140CF
:1001B80081B0CDF800E002460846FFF7F1FFC3B270
:1001C80071E0424A126802F00102D2B140F2010025
:1001D800FFF7D0FF3D4A126802F001028AB13C4A9B
:1001E800126802F400422AB14FF4FA3292FBF3F299
:1001F800104666E048F20002B2FBF3F292B290B207
:100208005FE0344A1268B2FBF3F2104659E02F4A15
:10021800126802F00202D2B140F20200FFF7AAFF10
:100228002A4A126802F002028AB1294A126802F4C4
:1002380000422AB14FF4FA3292FBF3F2104640E042
:1002480048F20002B2FBF3F292B290B239E0224ACD
:100258001268B2FBF3F2104633E0204A1268B2FB90
:10026800F3F210462DE01A4A126802F400422AB14D
:100278004FF4FA3292FBF3F2104622E048F2000201
:10028800B2FBF3F292B290B21BE0FFF735FFB0FB7E
:10029800F3F2104615E0124A1268B2FBF3F2104668
:1002A8000FE000200DE0002A3FF48BAF052AAED006
:1002B800012AD2D0022AD6D0032AE6D0042AEAD0CC
:1002C800EFE7DDF800E001B0704700BF48040140E7
:1002D800300401407C000020800000204C000020F9
:0402E80050000020A2
:1001A80081B0012109B2814009B208B201B070479B
:10017C0081B0074A07490A600749096841EA000249
:10018C0005490A60012203490A6001B0704700BFAB
:0C019C005A6900000004014050040140BA
:1001000082B01748006800F4E02114E0154801901F
:1001100023E01548019020E0144801901DE01448A8
:1001200001901AE01348019017E01348019014E081
:100130000020019011E00029E8D0B1F5803FE8D01F
:10014000B1F5003FE8D0B1F5403FE8D0B1F5802FE0
:10015000E8D0B1F5A02FE8D0EAE7019802B07047E7
:100160000404014060E31600C0C62D00808D5B00D2
:0C017000001BB70000366E01006CDC02C2
:10044C0081B0028802F0C00292B2920992B290B2CC
:10045C000AB900200EE0012802D10A68104609E012
:10046C00022802D0032800D004E001F20C0212682A
:08047C001046FFE701B07047D4
:10039C0082B08DED010A9DED010AB5EEC00AF1EEB9
:1003AC0010FA0ADBDDED010AB7EE000AF4EEC00A22
:1003BC00F1EE10FA01DA012100E0002189B9DDED3E
:1003CC00010ABFEE000AF4EEC00AF1EE10FA07DDE6
:1003DC009DED010AB5EEC00AF1EE10FA00DC00E06A
:1003EC0008E04FF0000100EE101A00ED000A9DED40
:1003FC00010A23E001A90968C90D01F0FF017F3949
:10040C0089B2182908D99DED010A00ED000A4FF0B8
:10041C00000100EE101A11E09DED010ABDEE400A3C
:10042C0010EE101A00EE101AB8EEC00A00ED000A19
:10043C0050ED000A9DED010A30EE600A02B07047E3
:1006940081B002884FF6FE7102EA0101018001B0C7
:0206A40070479D
:1012980081B0CDF800E0FFF7B5FD044A04490A60C3
:1012A8000020DDF800E001B0704700BFB90D000074
:0412B80054000020BE
:100E0C0081B0CDF800E084460B4A0C490A600C4ACC
:100E1C000C490A600C4A0D490A600D4A0D490A60DA
:100E2C000D48FFF7A1FE61460C48FFF76BFEDDF89D
:100E3C0000E001B0704700BFB90D00008400002035
:100E4C00FFFFFFFF88000020FFFFFFFF8C0000204A
:100E5C00FFFFFFFF90000020641F00000014004003
:10189C0081B0CDF800E0FFF7B3FA044A04490A60BE
:1018AC000020DDF800E001B0704700BFB90D00006A
:0418BC0054000020B4
:1018540081B0CDF800E0FFF7D7FA044A04490A60E2
:101864000020DDF800E001B0704700BFB90D0000B2
:0418740054000020FC
:1018780081B0CDF800E0FFF76BFA044A04490A602A
:101888000020DDF800E001B0704700BFA90E00009D
:0418980054000020D8
:100D580081B0CDF800E084460B4A0C490A600C4A81
:100D68000C490A600C4A0D490A600D4A0D490A608F
:100D78000D48FFF7FBFE61460C48FFF7C5FEDDF89E
:100D880000E001B0704700BFA90E000084000020F9
:100D9800FFFFFFFF88000020FFFFFFFF8C000020FF
:100DA800FFFFFFFF90000020881E00000010004099
:1019540083B0CDF800E0024610460D228DF8082031
:101964000A228DF809201FE0FFF762FF23E00278C6
:101974002AB10190FFF75CFF0198401CF7E71AE0D9
:1019840002782AB10190FFF753FF0198401CF7E752
:1019940002AA1046FFF74CFF0DF109021046FFF7AB
:1019A40047FF08E0062007E00029DDD00129DED04A
:1019B4000229E5D0F6E70020DDF800E003B0704727
:1018340081B0CDF800E00178CCB2A0B2034C2468AA
:10184400A0470020DDF800E001B0704754000020FC
:100EA80081B0CDF800E081B20348FFF701FEDDF81C
:0C0EB80000E001B0704700BF00100040D7
:100AB80081B0ADF800100146BDF8000001F20A024D
:100AC800128802F0010292B202B1F7E701F20E02B7
:060AD800108001B0704720
:100DB80081B0CDF800E081B20348FFF779FEDDF895
:0C0DC80000E001B0704700BF00140040C4
:100DD40081B0CDF800E081B20348FFF76BFEDDF887
:0C0DE40000E001B0704700BF00180040A4
:100DF00081B0CDF800E081B20348FFF75DFEDDF879
:0C0E000000E001B0704700BF001C004083
:101B100081B0CDF800E01048FFF754FF0F4800886F
:101B2000FFF75AFF0E4908808008088048F67D5765
:101B3000C0F25B0700BF00BF7F1EFDD100BF00BF2A
:101B400000BFFFF7C9FE07480221FFF703FFDDF8DA
:101B500000E001B0704700BF1C2100000000002021
:081B60005800002002000020E3
:1019C40081B0CDF800E0FFF751FBDDF800E001B095
:0219D40070475A
:1010700000F230011C310A6803490A6000F21801CD
:101080000A6802490A6070475C0000206000002086
:1019D80081B0CDF800E0044A0449FFF735FBDDF893
:1019E80000E001B0704700BF402000000027000A57
:1010500081B0CDF800E013460A4601460348FFF789
:1010600031FFDDF800E001B0704700BF0000004034
:100EC40085B0CDF800E08C46114601910290184699
:100ED400FFF74EFE02980199019102900A4661467D
:100EE4000DF1100CFFF78EFE029801994FF00407E4
:100EF40003AE04AD81468846FFE72C7834707F1E2C
:100F04006D1C761C002FF8D19DF80E104846FFF793
:100F140015FC41464846FFF7E9FD4846FFF7DEFD6C
:100F2400B9F800506FF0300405EA0404A9F8004051
:100F3400B9F8004044F01004A9F8004009F1120582
:100F4400BDF80C402C8009F102052C8804F00F0434
:100F54002C8008F07064240E6408641E09F10205F4
:100F6400E4B264002E191FFA88F404F47064A4B285
:100F74002509ADB234882C433480BDF80C00DDF86B
:060F840000E005B070471B
:100C080084B0CDF800E00F4666460023ADF80C30FE
:100C180002F440531946B1F5805F03D0B1F5005F87
:100C280000D004E01046FFF76BFD029023E0002996
:100C38001BD1364B984203D1354B1B68029313E006
:100C4800344B984203D1344B1B6802930CE0334B6E
:100C5800984203D1324B1B68029305E0314B98420E
:100C680002D1314B1B68029305E0B1F5405F02D118
:100C78002E4B1B68029300EE907AF8EE600AB7EEEE
:100C8800000A80EE201A9DED020AF8EE400AB7EE3F
:100C9800000AC0EE200A00218DF8041030469DF8A5
:100CA8000410142922D2224B5B181B788DF80E30C1
:100CB8001F4B5B181B7800EE103AB8EE400A20EE86
:100CC800800A81EE000ABCEE400A10EE103A1A467D
:100CD8004FF6FF739A4202D8ADF80C2006E04B1C81
:100CE800D9B28DF804109DF80410DAE74FF0040625
:100CF800054603AC23782B70761E641C6D1C002EF1
:100D0800F8D1DDF800E004B0704700BF00000040F3
:100D18006400002000040040680000200008004033
:100D28006C000020000C00407000002074000020BF
:040D38003600002061
:1007080085B0CDF800E000F440510D4601A9084637
:10071800FFF7E8FD05E001980AE0049808E00020EA
:1007280006E0B5F5805FF6D0B5F5005FF5D0F6E7E1
:08073800DDF800E005B0704798
:1007400081B0028802F03F02028000F22004238878
:100750004FF6F87203EA0202228048E04A1E92B283
:1007600093019BB202881A43028000F2200340F2F8
:1007700000021A8063E0028842F08002028000F2E8
:10078000200340F200021A8059E0028842F0C002C1
:10079000028000F2200340F200021A804FE002883B
:1007A000028000F220034A1E1A8048E0028842F0CC
:1007B0004002028000F220034A0892B2521E1A80C0
:1007C0003DE0028842F08002028000F220038A08A5
:1007D00092B2521E1A8032E0028842F0C0020280B9
:1007E00000F22003CA0892B2521E1A8027E00129A3
:1007F000B4D00229B2D00429BDD00829C5D003291C
:10080000CDD00529CBD00629C9D00729C7D00A29C0
:10081000CCD00C29CAD00E29C8D01029C6D0142992
:10082000CFD01829CDD01C29CBD02029C9D0282938
:10083000D2D03029D0D03829CED04029CCD001B068
:020840007047FF
:100AF00081B003886FF4407203EA020202800A099F
:0E0B000002F4407302881A43028001B070476D
:0E0AE00081B0018841F00401018001B070472F
:1018D80081B0CDF800E0FFF7ABFBDDF800E001B028
:0218E800704747
:1010380081B0CDF800E00348FFF7A4FFDDF800E039
:0810480001B0704700000040F8
:0E0F8C0081B0018841F01001018001B0704772
:101A800081B0CDF800E000211D4801801D4801888B
:101A90001B480088884213D219480088FFF710FFBE
:101AA00048F69D47C0F2000700BF00BF7F1EFDD172
:101AB00000BF00BF00BF12490888401C0880E5E74E
:101AC000104801880E4801800D480088002813D96D
:101AD0000B480088FFF7F4FE48F69D47C0F2000768
:101AE00000BF00BF7F1EFDD100BF00BF00BF044983
:101AF0000888401E0880E7E7DDF800E001B0704785
:081B00004A00002058000020FB
:1018C00081B0CDF800E00349FFF7E2FBDDF800E06E
:0818D00001B070470007000A97
:1010900081B0CDF800E00A4681B20348FFF74EFE6A
:0C10A000DDF800E001B0704700000040E7
:100D3C0081B002F070631B0E5B085B1E1A4600F25A
:0C0D4C0012045300E318198001B0704736
:101C680083B0CDF800E0374B374C384D384E394FFC
:101C7800394845F680213948018004F007000528D5
:101C880004D004F07000502800D00BE0012252B2BA
:101C980033480280002149B232480180324802802C
:101CA80032480180802132480160019502961E4623
:101CB80025463A46029B019C2E48006800F4807035
:101CC80000B1F9E72C492D480160019511463246CB
:101CD8001D46019B2748006800F4807000B1F9E7B1
:101CE800274801602748016027492848016028489B
:101CF800026028480360200D00F0070028B944F06E
:101D08000301254801602A4610E044F4803040F081
:101D18000301214801602A462048006830B1FFF7D6
:101D28009BFE012149B21E480160F5E700211748D2
:101D3800016042F4B44109480180DDF800E003B0D5
:101D4800704700BF000005003300000003000100D9
:101D5800840000000010000080BB00000C48004018
:101D68004CA509428CA5094248A5094288A5094203
:101D7800143004E00400014001005A6900000140E9
:101D880010100140141001405A690000000401407D
:101D980004040140080401400C0401400489204265
:041DA800048A204247
:101A600040F20907C0F2000700BF00BF7F1EFDD192
:081A700000BF00BF00BF70477A
:101C300081B002490248016001B0704780BB0000DA
:041C40007800002008
:081BFC0081B0FEE701B0704763
:101C040081B04EF68850CEF20000016841F47001B4
:101C1400016000BF00BF00BF00BFF1EE100A40F436
:0A1C24004000E1EE100A01B0704725
:1022580000B5DFF824B0DFF824A0DFF824C0FFF7CA
:10226800F1FBDFF820B0DFF820A0DFF820C0FFF78F
:10227800E9FB00BD704700BF000000204A000020B5
:102288007C2100004C00002054000020781A000037
:1022F40000B5DFF810B0DFF810A0FFF75FFC00BDF9
:0C230400704700BF000000209400002083
:041A78001027000033
:041A7C0000366E01C1
:101DAC00204C00400400050500000000204C0040C1
:101DBC000800050500000000000000000000000005
:101DCC000000000000000000000000000000000007
:101DDC0000000000000000000000000000000000F7
:101DEC0000000000000000000000000000000000E7
:101DFC0000000000000000000000000000000000D7
:101E0C0000000000000000000000000000000000C6
:101E1C0000000000000000000000000000000000B6
:101E2C0000000000000000000000000000000000A6
:101E3C000000000000000000000000000000000096
:101E4C000000000000000000000000000000000086
:101E5C000000000000000000000000000000000076
:101E6C000000000000000000000000000000000066
:0C1E7C0000000000000000000200000058
:101E8800004C00400400050500000000004C004024
:101E98000800050500000000000000000000000028
:101EA800000000000000000000000000000000002A
:101EB800000000000000000000000000000000001A
:101EC800000000000000000000000000000000000A
:101ED80000000000000000000000000000000000FA
:101EE80000000000000000000000000000000000EA
:101EF80000000000000000000000000000000000DA
:101F080000000000000000000000000000000000C9
:101F180000000000000000000000000000000000B9
:101F280000000000000000000000000000000000A9
:101F38000000000000000000000000000000000099
:101F48000000000000000000000000000000000089
:0C1F58000000000000000000020000007B
:101F6400004C00400004050500000000004C004047
:101F7400000805050000000000000000000000004B
:101F8400000000000000000000000000000000004D
:101F9400000000000000000000000000000000003D
:101FA400000000000000000000000000000000002D
:101FB400000000000000000000000000000000001D
:101FC400000000000000000000000000000000000D
:101FD40000000000000000000000000000000000FD
:101FE40000000000000000000000000000000000ED
:101FF40000000000000000000000000000000000DD
:1020040000000000000000000000000000000000CC
:1020140000000000000000000000000000000000BC
:1020240000000000000000000000000000000000AC
:0C2034000000000000000000020000009E
:10204000004C00400080050500000000000000007A
:102050000000000000000000000000000000000080
:102060000000000000000000000000000000000070
:102070000000000000000000000000000000000060
:102080000000000000000000000000000000000050
:102090000000000000000000000000000000000040
:1020A0000000000000000000000000000000000030
:1020B0000000000000000000000000000000000020
:1020C0000000000000000000000000000000000010
:1020D0000000000000000000000000000000000000
:1020E00000000000000000000000000000000000F0
:1020F00000000000000000000000000000000000E0
:1021000000000000000000000000000000000000CF
:0C211000000000000000000001000000C2
:10211C00FFFFFFFFFFFFFFFFFFFFFFFFFFFFFFFFC3
:10212C00FFFFFFFFFFFFFFFFFFFFFFFFFFFFFFFFB3
:10213C00FFFFFFFFFFFFFFFFFFFFFFFFFFFFFFFFA3
:10214C00FFFFFFFFFFFFFFFFFFFFFFFFFFFFFFFF93
:10215C00FFFFFFFFFFFFFFFFFFFFFFFFFFFFFFFF83
:10216C00FFFFFFFFFFFFFFFFFFFFFFFFFFFFFFFF73
:02217C00007DE4
:10217E003E203E203E2061707020696E697420649E
:0A218E006F6E65203C203C203C00F1
:102198003E203E203E2073797320696E6974206466
:0A21A8006F6E65203C203C203C00D7
:1021B20001020304050607080A0C0E1014181C205D
:0421C2002830384049
:1021C60000001102CB024303E903E40496058606E8
:1021D6006308B008C709B80B070DF70DA90EA30FC2
:1021E600BE101A118A13531673176E1820190B1A7C
:1021F600591BEB1B4F1DB51E441F8D2010217C2142
:082206002F222C23D2234824CF
:10220E000000010002000400080010002000110070
:10221E00210022004400250049004A00520092008D
:10222E0053005500AA006B00AD00B500B600D600F5
:10223E00B700BB00DD00ED00EE00BF00DF00EF00D9
:08224E00F700FB00FD00FE009B
:00000001FF
