:10000000FCFF0220B92100007121000071210000D5
:100010007121000071210000712100007121000098
:100020007121000071210000712100007121000088
:100030007121000071210000712100007121000078
:100040007121000071210000712100007121000068
:100050007121000071210000712100007121000058
:100060007121000071210000712100007121000048
:100070007121000071210000712100007121000038
:100080007121000071210000712100007121000028
:100090007121000071210000712100007121000018
:1000A0007121000071210000712100007121000008
:1000B00071210000712100007121000071210000F8
:1000C00071210000712100007121000071210000E8
:1000D00071210000712100007121000071210000D8
:1000E00071210000712100007121000071210000C8
:1000F00071210000712100007121000071210000B8
:1001000071210000712100007121000071210000A7
:100110007121000071210000712100007121000097
:100120007121000071210000712100007121000087
:100130007121000071210000712100007121000077
:100140007121000071210000712100007121000067
:100150007121000071210000712100007121000057
:100160007121000071210000712100007121000047
:100170007121000071210000712100007121000037
:100180007121000071210000712100007121000027
:08019000712100007121000043
:1021B80000F010F8FFF7DCFF00F01CFCFFF7EEFF63
:1021C80000F0CAFBFFF754FFFFF77AFFFFF70CFF99
:0421D800FCE7FEE73B
:10215C0081B01CF8019B0BF8019BBBEB0A0FF8D16B
:04216C0001B0704707
:1021200081B04FF000094FF0000CBDEB0A0F04DC4A
:10213000BDEB0B0F01DBD446EA464BF8049BBBEB2F
:102140000A0FFAD1BCEB0A0F05DDE246D9F800B060
:0A2150000BF1040BF1E701B070473A
:1020780081B0CDF800E0012207210020FFF7F6FE2D
:10208800002206210020FFF7F1FE42F280510120D4
:10209800FFF73AFF40F6FE07C0F23D0700BF00BF5A
:1020A8007F1EFDD100BF00BF00BF04480221FFF71B
:1020B8004FFFDDF800E001B0704700BF1C00FF1FB4
:101E740081B0CDF800E05FFA81F85FFA82F91DE0E5
:101E84005FFA89F15FFA88F0FFF7E8FB1FE05FFA79
:101E940089F15FFA88F0FFF7A5FD18E05FFA89F190
:101EA4005FFA88F0FFF7C8FC11E05FFA89F15FFA86
:101EB40088F0FFF789FE0AE0012008E00028DFD05F
:101EC4000128E4D00228E9D00328EED0F4E7DDF8B5
:061ED40000E001B07047C0
:1016600081B0CDF800E0A9E0012905D14FF00401D7
:101670006548FFF713FF04E04FF004016348FFF7EC
:10168000FDFDBBE0012905D14FF400615E48FFF785
:1016900005FF04E04FF400615C48FFF7EFFDADE0AB
:1016A000012905D14FF010015948FFF7F7FE04E07A
:1016B0004FF010015748FFF7E1FD9FE0012905D1E8
:1016C0004FF020015248FFF7E9FE04E04FF02001FF
:1016D0005048FFF7D3FD91E0012905D14FF080017B
:1016E0004B48FFF7DBFE04E04FF080014948FFF76D
:1016F000C5FD83E0012905D14FF040014448FFF7C3
:10170000CDFE04E04FF040014248FFF7B7FD75E021
:10171000012905D14FF480613F48FFF7BFFE04E087
:101720004FF480613D48FFF7A9FD67E0012905D12D
:101730004FF400513448FFF7B1FE04E04FF400517C
:101740003248FFF79BFD59E0012905D14FF0040114
:101750003348FFF7A3FE04E04FF004013148FFF7E0
:101760008DFD4BE0012905D14FF008012C48FFF712
:1017700095FE04E04FF008012A48FFF77FFD3DE0A9
:10178000012905D14FF480712548FFF787FE04E059
:101790004FF480712348FFF771FD2FE0012905D137
:1017A0004FF400711E48FFF779FE04E04FF400711A
:1017B0001C48FFF763FD21E0012020E000283FF4F2
:1017C00053AF01283FF45EAF02283FF469AF03280E
:1017D0003FF474AF04283FF47FAF05283FF48AAF8D
:1017E00006283FF495AF0728A0D00828ACD00928D8
:1017F000B8D00A28C4D00B28D0D0DDE70020DDF80F
:1018000000E001B0704700BF50F00F4040F00F40C3
:1018100090F00F4080F00F4010F00F4000F00F40AC
:08182000D0F00F40C0F00F40B2
:10149C0081B0CDF800E0034AFFF7DAFDDDF800E09B
:0814AC0001B0704704010200C9
:10105C0081B0CDF800E0FFF71BFDDDF800E001B03A
:02106C007047CB
:100A9C0083B0CDF800E006460C4615463046FFF70D
:100AAC0093FE40F2FF1306EA03008009002622465B
:100ABC002946202E39D24FF0010303FA06F402EA3C
:100ACC0004031F46A3422ED104031A4B1C19B30076
:100ADC00E51801952C68184B04EA03032B60174B9F
:100AEC0001EA0304019B1B6843EA0404019B1C609C
:100AFC0001F48033B3F5803F15D08401104B1B19E2
:100B0C001433029301F400333BB1FC43029B1B688A
:100B1C0003EA0404029B1C6005E0029B1B6843EA89
:100B2C000704029B1C60761CC3E7DDF800E003B0F1
:100B3C00704700BF009004400000FFFFFFFF000063
:040B4C0000F00F4066
:1007D40081B040F2FF1100EA01018909084600F2E4
:1007E40009024FF0010101FA02F20449096841EAE1
:1007F400020202490A6001B0704700BF3880044019
:10127C0081B0CDF800E0034AFFF7EAFEDDF800E0AC
:08128C0001B0704704010400E9
:1019E80081B0CDF800E0A9E0012905D14FF0080148
:1019F8006548FFF74FFD04E04FF008016348FFF723
:101A080039FCBBE0012905D14FF400215E48FFF7FE
:101A180041FD04E04FF400215C48FFF72BFCADE0EA
:101A2800012905D14FF010015948FFF733FD04E0B3
:101A38004FF010015748FFF71DFC9FE0012905D121
:101A48004FF020015248FFF725FD04E04FF0200138
:101A58005048FFF70FFC91E0012905D14FF08001B4
:101A68004B48FFF717FD04E04FF080014948FFF7A6
:101A780001FC83E0012905D14FF040014448FFF7FC
:101A880009FD04E04FF040014248FFF7F3FB75E021
:101A9800012905D14FF004013F48FFF7FBFC04E0A2
:101AA8004FF004013D48FFF7E5FB67E0012905D148
:101AB8004FF480713448FFF7EDFC04E04FF4807177
:101AC8003248FFF7D7FB59E0012905D14FF480319F
:101AD8003148FFF7DFFC04E04FF480312F48FFF76F
:101AE800C9FB4BE0012905D14FF400312A48FFF723
:101AF800D1FC04E04FF400312848FFF7BBFB3DE080
:101B0800012905D14FF480612348FFF7C3FC04E0A5
:101B18004FF480612148FFF7ADFB2FE0012905D183
:101B28004FF400611C48FFF7B5FC04E04FF4006176
:101B38001A48FFF79FFB21E0012020E000283FF42E
:101B480053AF01283FF45EAF02283FF469AF032882
:101B58003FF474AF04283FF47FAF05283FF48AAF01
:101B680006283FF495AF0728A0D00828ACD009284C
:101B7800B8D00A28C4D00B28D0D0DDE70020DDF883
:101B880000E001B0704700BF50F00F4040F00F4038
:101B9800D0F00F40C0F00F4090F00F4080F00F40A1
:10183C0081B0CDF800E09CE0BBE0012905D14FF46C
:10184C0080715E48FFF724FE04E04FF480715C4821
:10185C00FFF70EFDADE0012905D14FF4007157489B
:10186C00FFF716FE04E04FF400715548FFF700FD3A
:10187C009FE0012905D14FF400115248FFF708FEF3
:10188C0004E04FF400115048FFF7F2FC91E00129FD
:10189C0005D14FF400014B48FFF7FAFD04E04FF47B
:1018AC0000014948FFF7E4FC83E0012905D14FF41E
:1018BC0080014448FFF7ECFD04E04FF480014248FE
:1018CC00FFF7D6FC75E0012905D14FF020013F4808
:1018DC00FFF7DEFD04E04FF020013D48FFF7C8FCA8
:1018EC0067E0012905D14FF002013848FFF7D0FD20
:1018FC0004E04FF002013648FFF7BAFC59E0012929
:10190C0005D14FF480312F48FFF7C2FD04E04FF4AE
:10191C0080312D48FFF7ACFC4BE0012905D14FF489
:10192C0000312848FFF7B4FD04E04FF4003126489D
:10193C00FFF79EFC3DE0012905D14FF4805125486D
:10194C00FFF7A6FD04E04FF480512348FFF790FC0D
:10195C002FE0012905D14FF400611E48FFF798FDD7
:10196C0004E04FF400611C48FFF782FC21E00120E9
:10197C0020E000283FF460AF01283FF45EAF02285E
:10198C003FF469AF03283FF474AF04283FF47FAFF2
:10199C0005283FF48AAF06283FF495AF0728A0D05E
:1019AC000828ACD00928B8D00A28C4D00B28D0D02D
:1019BC00DDE70020DDF800E001B0704790F00F404B
:1019CC0080F00F4050F00F4040F00F4010F10F40EE
:0C19DC0000F10F4010F00F4000F00F4031
:101BCC0081B0CDF800E09CE0BBE0012905D14FF4D9
:101BDC0080515E48FFF75CFC04E04FF480515C4898
:101BEC00FFF746FBADE0012905D14FF400515748F2
:101BFC00FFF74EFC04E04FF400515548FFF738FB5B
:101C0C009FE0012905D14FF400115248FFF740FC29
:101C1C0004E04FF400115048FFF72AFB91E0012932
:101C2C0005D14FF400014B48FFF732FC04E04FF4B0
:101C3C0000014948FFF71CFB83E0012905D14FF453
:101C4C0080014448FFF724FC04E04FF48001424833
:101C5C00FFF70EFB75E0012905D14FF040013F481D
:101C6C00FFF716FC04E04FF040013D48FFF700FB86
:101C7C0067E0012905D14FF004013848FFF708FC53
:101C8C0004E04FF004013648FFF7F2FA59E001295D
:101C9C0005D14FF480312F48FFF7FAFB04E04FF4E5
:101CAC0080312D48FFF7E4FA4BE0012905D14FF4C0
:101CBC0000312848FFF7ECFB04E04FF400312648D4
:101CCC00FFF7D6FA3DE0012905D14FF480512548A4
:101CDC00FFF7DEFB04E04FF480512348FFF7C8FA0E
:101CEC002FE0012905D14FF400611E48FFF7D0FB0E
:101CFC0004E04FF400611C48FFF7BAFA21E0012020
:101D0C0020E000283FF460AF01283FF45EAF0228CA
:101D1C003FF469AF03283FF474AF04283FF47FAF5E
:101D2C0005283FF48AAF06283FF495AF0728A0D0CA
:101D3C000828ACD00928B8D00A28C4D00B28D0D099
:101D4C00DDE70020DDF800E001B0704790F00F40B7
:101D5C0080F00F4050F00F4040F00F4010F10F405A
:0C1D6C0000F10F4010F00F4000F00F409D
:101F100081B0CDF800E011E00846FFF745FE16E07D
:101F20000846FFF789FF12E00846FFF737FF0EE08B
:101F30000846FFF721FF0AE0012008E00028EBD067
:101F40000128EDD00228EFD00328F1D0F4E7DDF826
:061F500000E001B0704743
:101BA80081B0CDF800E0FFF77FFB044A04490A60E2
:101BB8000020DDF800E001B0704700BF0D160000FE
:041BC8004800FF1FB3
:1012B00081B0CDF800E003460A48FFF7E9FE0A4A8C
:1012C00040F2000104B402B440F20002194640F2B8
:1012D00000030448FFF792FE02B0DDF800E001B021
:0C12E000704700BF00C00640E02700007F
:1010900081B0304988420CD12F4A30490A60304A29
:1010A00030490A60304A31490A60314A31490A60A0
:1010B0004EE0314988420CD1304A28490A60304A12
:1010C00028490A602F4A29490A602F4A29490A609B
:1010D0003EE02E4988420CD12D4A20490A602D4A13
:1010E00020490A602C4A21490A602C4A21490A6099
:1010F0002EE02B4988420CD12A4A18490A602A4A14
:1011000018490A60294A19490A60294A19490A6096
:101110001EE0284988420CD1274A10490A60274A14
:1011200010490A60264A11490A60264A11490A6094
:101130000EE0254988420BD1244A08490A60244A16
:1011400008490A60234A09490A60234A09490A6092
:1011500001B0704700A00640951200008000FF1FFC
:10116000FFFFFFFF8400FF1FFFFFFFFF8800FF1F3F
:10117000FFFFFFFF8C00FF1F00B006409D13000023
:10118000FFFFFFFFFFFFFFFFFFFFFFFF00C0064065
:101190000D160000FFFFFFFFFFFFFFFFFFFFFFFF38
:1011A00000D0064029160000FFFFFFFFFFFFFFFFF2
:1011B000FFFFFFFF00A00E4045160000FFFFFFFFEE
:1011C000FFFFFFFFFFFFFFFF00B00E408114000094
:0C11D000FFFFFFFFFFFFFFFFFFFFFFFF1F
:100FFC0085B0CDF800E001900291ADF80C20ADF871
:10100C001030BDF81440ADF814400698FFF70AFDF7
:10101C000198FFF787FE02990198FFF749FEBDF88A
:10102C000C100198FFF7E4FEBDF810100198FFF7C3
:10103C00C3FEBDF814100198FFF704FE0198FFF7EA
:10104C00F9FD0198FFF704FEDDF800E005B07047EC
:100A300081B0CDF800E040F2000C83464FEA8C0113
:100A40000BEB01010968B1F1FF3F12D00BF134014A
:100A50004FEA8C03C91809680A460BEB03010968C1
:100A600008461146FFF7DAFC0CF1010C1FFA8CFC6A
:0A0A7000E4E7DDF800E001B0704794
:10041C0082B0CDF800E080464FEA581202F0070295
:10042C00914608F01F04A24693010D4AD3184FF0D1
:10043C000102A240019218460A46019900F008FEFA
:10044C004FEA0933074AD3184FEA8A029C1808F47A
:10045C00E06322681A432260DDF800E002B07047C6
:08046C0000F00F400090044075
:100D300081B01849884204D1012252B216490A6092
:100D400026E01649884204D1012252B214490A60B1
:100D50001EE01449884204D1012252B212490A60AD
:100D600016E01249884204D1012252B210490A60A9
:100D70000EE01049884204D1012252B20E490A60A5
:100D800006E00E49884203D1012252B20C490A60A2
:100D900001B0704700A00640A806904200B006408F
:100DA000AC06904200C00640B006904200D006401B
:100DB000B406904200A00E402805904200B00E40BC
:040DC0002C0590422C
:100CBC0085B0CDF800E08046894601AA1046FFF7C2
:100CCC0047FC164A904503D0154A904500D001E0E8
:100CDC00019800E002984FEA0912B0FBF2F291B2CF
:100CEC0092B2130A9BB298F800201A4388F800209D
:100CFC0008F10103CAB21A7043014FEA0912B3FB9F
:100D0C00F2F34A0192B29A1AD0B208F10A031A7895
:100D1C0002431A70DDF800E005B0704700A00640F1
:040D2C0000B00640CD
:10055C0081B0CDF800E00446FFF754FF40F2E831DB
:10056C0000FB01F3194909680A0F1849096801F0E1
:10057C007061090EC8B21549096801F47001090DC2
:10058C00CDB21249096801F47021090CCEB2D1B276
:10059C00491C09B259430F462360221D411C09B264
:1005AC00B7FBF1F1116004F20802691C09B2B7FB48
:1005BC00F1F1116004F20C02711C09B2B7FBF1F1FC
:1005CC001160DDF800E001B0704700BF44800440CA
:0C04100001480068704700BF5800FF1F43
:100DFC0081B0841C23784FF6EF7212B203EA020220
:100E0C002270841C0B0122781A43227001B07047A7
:100DC40081B001F0020262B1841C01F002032278B6
:100DD4001A432270841C01F0010322781A43227002
:100DE40007E0841C23784FF6FD7212B203EA020274
:060DF400227001B07047FF
:0C0C500081B002780A43027001B07047C6
:100C400081B0C21C117841F00401117001B07047ED
:100C5C0081B0C21C117841F00801117001B07047CD
:101E380081B0CDF800E0FFF755FA044A04490A607A
:101E48000020DDF800E001B0704700BF291600004F
:041E58004800FF1F20
:1012EC0081B0CDF800E003460A48FFF7CBFE0A4A6E
:1012FC0040F2000104B402B440F20002194640F27C
:10130C0000030448FFF774FE02B0DDF800E001B002
:0C131C00704700BF00D00640742700009E
:101D9C0081B0CDF800E0FFF7DDFA044A04490A608F
:101DAC000020DDF800E001B0704700BF9512000084
:041DBC004800FF1FBD
:1013600081B0CDF800E003460A48FFF791FE0A4A33
:1013700040F2000104B402B440F20002194640F207
:1013800000030448FFF73AFE02B0DDF800E001B0C8
:0C139000704700BF00A0064008270000C6
:101D780081B0CDF800E0FFF7EFFA044A04490A60A1
:101D88000020DDF800E001B0704700BF95120000A8
:041D98004800FF1FE1
:101F580083B0CDF800E0024610460D228DF8082027
:101F68000A228DF809201FE0FFF736FF23E00278E8
:101F78002AB10190FFF730FF0198401CF7E71AE0FB
:101F880002782AB10190FFF727FF0198401CF7E774
:101F980002AA1046FFF720FF0DF109021046FFF7CD
:101FA8001BFF08E0062007E00029DDD00129DED06C
:101FB8000229E5D0F6E70020DDF800E003B070471D
:101DE00081B0CDF800E00178CCB2A0B2034C2468F9
:101DF000A0470020DDF800E001B070474800FF1F59
:1012940081B0CDF800E081B20348FFF7E7FEDDF846
:0C12A40000E001B0704700BF00A0064051
:1010700081B0ADF800100146BDF800000A1D1378DC
:10108000C3F3C01202B9F9E7CA1D107001B070476E
:10139C0081B0CDF800E081B20348FFF763FEDDF8C1
:0C13AC0000E001B0704700BF00B0064038
:10160C0081B0CDF800E081B20348FFF72BFDDDF887
:0C161C0000E001B0704700BF00C00640B5
:1016280081B0CDF800E081B20348FFF71DFDDDF879
:0C16380000E001B0704700BF00D0064089
:1016440081B0CDF800E081B20348FFF70FFDDDF86B
:0C16540000E001B0704700BF00A00E4095
:1014800081B0CDF800E081B20348FFF7F1FDDDF84F
:0C14900000E001B0704700BF00B00E404B
:1020C80081B0CDF800E01048FFF77AFF0F4800888C
:1020D800FFF700FF0E49088080B28008088042F6AA
:1020E800FE47C0F2311700BF00BF7F1EFDD100BF01
:1020F80000BF00BFFFF76EFF06480221FFF728FF69
:10210800DDF800E001B07047B82800000000FF1FAC
:082118004C00FF1F0200FF1F35
:101FC80081B0CDF800E0FFF7F7FEDDF800E001B0E2
:021FD800704750
:101DC00000F230011C310A6803490A6000F2180170
:101DD0000A6802490A6070475000FF1F5400FF1F45
:101EDC0081B0CDF800E0044B01220221FFF78AFF0C
:0C1EEC00DDF800E001B070474C28000059
:101E000084B0CDF800E0ADF80400ADF80810ADF8EE
:101E10000C201846FEF70CFEBDF80C30BDF808206B
:101E20000021BDF80400FFF745FBBDF80400DDF814
:061E300000E004B0704761
:1014B40083B0CDF800E01FFA81FB02F00705404C31
:1014C400257001253F4C25703F4C206032253F4C50
:1014D400256000253E4C25803E4C246844F4785514
:1014E4003C4C256024E03C4D3C4C25603C4D3D4C3F
:1014F400256029E0384D394C25603B4D394C256039
:1015040022E0354D354C2560384D364C25601BE0C6
:10151400314D324C2560334C2568354C2543314CD4
:101524002560344C246844F00075324C25600BE08F
:10153400BBF1000FD7D0BBF1010FDBD0BBF1020F21
:10154400DFD0BBF1030FE3D000248DF80440002466
:101554008DF8054000248DF8064000240294802470
:10156400029410E02448FFF737FE19E02348FFF700
:1015740033FE15E02248FFF72FFE11E02148FFF764
:101584002BFE0DE00CE0BBF1000FEBD0BBF1010F23
:10159400ECD0BBF1020FEDD0BBF1030FEED0F1E7BD
:1015A40001AC21461FFA8BF0FFF738FE012201211E
:1015B4005FFA8BF0FFF73AFCDDF800E003B0704708
:1015C4006C00FF1F6D00FF1F7000FF1F7400FF1FE2
:1015D4007800FF1F38800440109008800070044099
:1015E400010000613C8004400100006201000064CD
:1015F40001000060308004400080034000900340FC
:0816040000A0034000900B4020
:1011DC0081B003460E490B60002119809A1C002136
:1011EC0011801A1D002111809A1D042111800420E8
:1011FC0027280AD241005A180021118041005A18A0
:10120C0003490A60401C80B2F2E701B0704700BF8E
:04121C007C00FF1F34
:1012200081B0CDF800E089468300134AD2181268D5
:1012300092461046FFF714FB09F1040212681146AA
:101240005046FFF71DFB99F80020D1B25046FFF73A
:10125000F3FA09F102021278D1B25046FFF706FD07
:1012600009F101021278D1B25046FFF713FD0020B8
:0C127000DDF800E001B070473800FF1FFF
:1008600081B0CDF800E0054601212846FFF718FFCA
:1008700000212846FFF71EFFDDF800E001B07047B9
:1006A00081B000F25404CBB2226863F300022260EE
:0406B00001B07047DE
:1006B40081B003686FF0070203EA02020260CAB263
:0E06C40002F0070302681A43026001B070479B
:1008800081B0CDF800E005460E4601212846FFF76D
:1008900021FF01212846FFF7C7FE01212846FFF767
:1008A00023FF01212846FFF7ADFE01212846FFF76F
:1008B0000FFE40F200082F46B8F1040F08D20122C3
:1008C0005FFA88F13846FFF7E9FD08F10108F3E720
:1008D00006F080029AB101213846FFF70DFE012192
:1008E0003846FFF7FFFD01213846FFF7C3FD012120
:1008F0003846FFF7C9FD01213846FFF76FFE06F0C5
:1009000070028AB301213846FFF772FE0121384692
:10091000FFF71AFE01213846FFF7F8FD012138469E
:10092000FFF7FEFD01213846FFF704FE06F0100236
:1009300032B107F258040123226863F304122260E3
:1009400006F0200232B107F258040123226863F353
:100950000412226006F0400232B107F2580401236B
:10096000226863F304122260DDF800E001B07047F2
:1006D40081B000F28C04CBB2226863F3C7122260AB
:0406E40001B07047AA
:1006280081B000F28C04CBB2226863F382022260AC
:0406380001B0704756
:1006E80081B000F28C04CBB2226863F3041222605A
:0406F80001B0704796
:1006040081B000F28C04CBB2226863F345122260FD
:0406140001B070477A
:1004D00081B000F25804CBB2226863F3C3022260F9
:0404E00001B07047B0
:10049C0081B052B100F26405CC004FF0200303FA96
:1004AC0004F42B6823432B6009E000F26405CC00B4
:1004BC004FF02003A340DC432B6823402B6001B09A
:0204CC00704777
:1004F80081B000F28C04CBB2226863F30822226038
:0405080001B0704787
:1004E40081B000F28C04CBB2226863F3492222600B
:0404F40001B070479C
:1004740081B000F28C04CBB2226863F3CB222260F9
:0404840001B070470C
:1004880081B000F28C04CBB2226863F30C32226094
:0404980001B07047F8
:1005DC0081B000F28C04CBB2226863F38A222260D1
:0405EC0001B07047A3
:1005F00081B000F28C04CBB2226863F31042226017
:0406000001B070478E
:1005480081B000F28C04CBB2226863F3514222607E
:0405580001B0704737
:10050C0081B000F28C04CBB2226863F3D342226038
:04051C0001B0704773
:1005200081B000F28C04CBB2226863F314522260D3
:0405300001B070475F
:1005340081B000F28C04CBB2226863F39242226051
:0405440001B070474B
:1008380081B000F2840423686FF01F0203EA020209
:10084800226000F28404CAB202F01F0322681A432D
:06085800226001B07047B0
:100C6C0081B039B100F274040123226863F3861257
:100C7C00226006E000F254040123226863F382022E
:060C8C00226001B0704778
:100C940081B000F2840423686FF0C00203EA020208
:100CA400226000F284048A0192B202F0C003226836
:080CB4001A43226001B07047F1
:100E300081B0CDF800E0CDB28400064B1B191B68D1
:100E4000D1B21846FFF736FC034B1D70DDF800E009
:0C0E500001B070473800FF1F3600FF1F84
:101FDC0081B0CDF800E00120FFF73AFFDDF800E01A
:041FEC0001B0704789
:101E5C0081B0CDF800E081B20020FFF75FFADDF829
:061E6C0000E001B0704728
:1013280082B0CDF800E0ADF80400CAB20849FFF772
:1013380091FDBDF804008300064AD2181268012105
:101348001046FFF767FDDDF800E002B0704700BF08
:081358006C00FF1F3800FF1FAD
:100E5C0084B0CDF800E08C465FFA82FA8400624BD5
:100E6C001B191B689B4601901846FFF77BFD5FFA28
:100E7C008AF261465846FFF77DFD01985B4B1B7863
:100E8C000BB90120ACE0C0B2FFF788FE064600218A
:100E9C005846FFF7B9FE634603938EE00CF104034A
:100EAC001B685B00B6FBF3F35D1EAEB20CF10803DE
:100EBC001C68ABB25C436423B4FBF3F398B2ACB2E2
:100ECC009BB2A34203D3731C98B285B200E085B2E7
:100EDC00B1B25846FFF736FEAAB25FFA8AF158460D
:100EEC00FFF746FE75E00CF104031B689B00B6FB94
:100EFC00F3F5AEB20CF108031C68ABB25C4364238F
:100F0C00B4FBF3F398B2ACB29BB2A34203D3701C04
:100F1C0080B285B200E085B2B1B25846FFF712FE3E
:100F2C00AAB25FFA8AF15846FFF722FE51E00CF1A3
:100F3C0004031B685B00B6FBF3F35E1EB7B20CF147
:100F4C0008031C68B3B25C436423B4FBF3F5A8B28A
:100F5C000CF10C031C88B3B25C43A4B26423B4FB45
:100F6C00F3F31FFA83F8B4B2ABB2A34202D37E1CE4
:100F7C00B6B200E086B2B9B25846FFF7E3FD5FFAAD
:100F8C008AF0FFF701FC43001FFA88F2D9B25846E9
:100F9C00FFF7EEFD06EB0803ADF808305FFA8AF0B8
:100FAC00FFF7F2FB43005C1CBDF808309AB2E1B2CB
:100FBC005846FFF7DDFD0CE00BE0039C2378022B79
:100FCC003FF46CAF2378032B8DD02378042BAED059
:100FDC00F2E7064B1B78D9B25846FFF749FD0020C3
:100FEC00DDF800E004B070473800FF1F3600FF1F2B
:1009700081B00022016862F3C711016001B07047C5
:1009800082B0CDF800E006468946D7B2F8B2FFF74C
:1009900001FF5FFA80F80022C1B23046FFF7E0FEA7
:1009A00009F101031B7813B1012040B201E00220DC
:1009B00040B2C2B2F9B23046FFF7A0FE4B460193F7
:1009C00026E000225FFA88F13046FFF71BFF002186
:1009D0003046FFF7F7FE0222F9B23046FFF72EFE4F
:1009E00021E000225FFA88F13046FFF70BFF01217A
:1009F0003046FFF7E7FE16E000213046FFF7E2FE43
:100A000001225FFA88F13046FFF7FCFE0BE00AE0B6
:100A1000019C2378022BD4D02378032BE1D02378B8
:0E0A2000042BE9D0F3E7DDF800E002B07047E8
:1007940081B010B1012800D001E000200EE0022851
:1007A40002D0032800D001E0012007E0042802D091
:1007B400052800D001E0022000E0032001B07047CA
:1007600081B052B100F26405CC004FF0040303FAEB
:1007700004F42B6823432B6009E000F26405CC00ED
:100780004FF00403A340DC432B6823402B6001B0EF
:020790007047B0
:1006FC0081B002F00103DBB243B100F20C04CB0079
:10070C00E418236843F00403236009E000F20C04AE
:10071C00CB00E5182C686FF0040304EA03032B608C
:10072C0002F00203DBB243B100F20C04CB00E4187C
:10073C00236843F00803236009E000F20C04CB00AB
:10074C00E5182C686FF0080304EA03032B6001B072
:02075C007047E4
:1008040081B052B100F26405CC004FF0010303FA49
:1008140004F42B6823432B6009E000F26405CC0048
:100824004FF00103A340DC432B6823402B6001B04D
:0208340070470B
:1007C40081B0CBB2026863F34512026001B0704796
:10063C0081B002F00103DBB243B100F20C04CB0039
:10064C00E418236843F01003236009E000F20C0463
:10065C00CB00E5182C686FF0100304EA03032B6041
:10066C0002F00203DBB243B100F20C04CB00E4183D
:10067C00236843F02003236009E000F20C04CB0054
:10068C00E5182C686FF0200304EA03032B6001B01B
:02069C007047A5
:100BA80081B0CDF800E04FF00003820014498918A5
:100BB8000868FFF72DFD012109B281405FFA81F82D
:100BC8000DE0184618E0184616E00E48FFF7C2FC7C
:100BD8000C490968B1FBF8F00EE018460CE00A4928
:100BE80009780329EDD0084909780229EBD006498C
:100BF80009780129E9D0F0E7DDF800E001B0704795
:0C0C08003800FF1F5C00FF1F3600FF1FBC
:0E06180081B0016801F00701C8B201B070475F
:100C140081B000F24C042368064A03EA020222600F
:100C240000F24C04044A01EA020322681A432260D7
:0C0C340001B070470000FFFFFFFF000050
:100B500081B000F208042368064A03EA0202226018
:100B600000F20804044A01EA020322681A432260E0
:0C0B700001B070470000FFFFFFFF000015
:100B7C0081B000F20C04CB00E3181D1D2C68054B52
:100B8C001C40054B02EA030344EA03032B6001B04B
:0C0B9C00704700BF0000FFFFFFFF0000DB
:100A7C0081B003686FF0180203EA02020260CA0038
:100A8C0092B202F0180302681A43026001B0704778
:100E1C0081B000F25804CBB2226863F3C71222608F
:040E2C0001B070475A
:101FF00081B0CDF800E000211D4801801D48018816
:102000001B480088884213D219480088FFF774FFE4
:102010004DF2BE47C0F2010700BF00BF7F1EFDD1D9
:1020200000BF00BF00BF12490888401C0880E5E7D8
:10203000104801880E4801800D480088002813D9F7
:102040000B480088FFF758FF4DF2BE47C0F201076A
:1020500000BF00BF7F1EFDD100BF00BF00BF04490D
:102060000888401E0880E7E7DDF800E001B070470F
:082070004E00FF1F4C00FF1F92
:101EF80081B0CDF800E001220021FFF791FCDDF868
:061F080000E001B070478B
:1018280081B0CDF800E00023FFF7C2FDDDF800E04D
:0418380001B0704744
:1013B80082B0CDF800E0ADF804308BB281B2BDF850
:1013C800040013B1254C216004E0C1F16405ADB2FD
:1013D800224C2560ADF80400D2B22149FFF73AFD4E
:1013E800BDF8040085001F4C64192468ADF804009A
:1013F80001212046FFF70EFDBDF8040020E01A4C3D
:1014080025686FF001042540174C256021E0174C32
:1014180025686FF001042540144C256019E0144C30
:1014280025686FF001042540114C256011E0114C2E
:1014380025686FF0010425400E4C256009E008E09E
:101448000028DCD00128E2D00228E8D00328EED01A
:10145800F5E7DDF800E002B0704700BF7400FF1F39
:101468006C00FF1F3800FF1F548003405490034056
:0814780054A0034054900B4006
:1021DC0090B072B697480190974802909748039038
:1021EC009748049097480590974806909748079011
:1021FC00974808909748099097480A9097480B90F1
:10220C0097480C90974998480D9098480E900D98C7
:10221C0000F007000F9001F0010050B94CF2205073
:10222C00934908804DF62810088040F2D21191484D
:10223C0001809148007800F0010050B18F4800787F
:10224C0000F0080020B18D49087840F008000870B3
:10225C0021E08B48006840F00051894801608948B2
:10226C00006800F48070B0B9864801686FF4705053
:10227C0001EA000040F44071824801608148006826
:10228C0040F480717F4801607E4801686FF40070F3
:10229C0001407C480160AA217B4801700D9800F038
:1022AC00100060B9794801786FF060000140774800
:1022BC00017077480078012800D0FAE71CE00D98EF
:1022CC0000F01000C0B10E997248814208D960210B
:1022DC006E4801706E480078802800D0FAE70BE059
:1022EC006A4801786FF060000140684801706848E6
:1022FC000078012800D0FAE7049967480160674824
:10230C0001686FF440200140029800F44020014322
:10231C0062480160624801686FF4403001400398E4
:10232C0000F4403001435E4801600F9830B10F98C3
:10233C00012803D00F98022800D061E0019800F02A
:10234C00800050B9089800F0400028B10B9800F0BC
:10235C000300002800D100E015E05248006840F46A
:10236C0000715048016050480168504801404E4887
:10237C000160069800F0040028B14D4801684B48F4
:10238C0001404B4801600A994A48017005994A4836
:10239C000170059800F0040038B14848007800F04E
:1023AC001000002800D1F8E705E04448007800F060
:1023BC00100000B1F9E74248007800F0BF01C9B243
:1023CC00069800F0FD0001433D480170079800F0AD
:1023DC00E0013C48007800F01F00014339480170CF
:1023EC000199394801700B99384801700F980228EF
:1023FC0005D13348007840F0020131480170B8E053
:10240C00019800F0800020B90B9800F0030000B197
:10241C0065E02448006840F40071224801602248BD
:10242C0001682248014020480160069800F0040031
:10243C0000F04EB80000000000000C00000001008D
:10244C000000140122000000240000000000000025
:10245C000200000046000000000000000000000028
:10246C00000000000000000007000000C0D40100C4
:10247C000E2005400020054000F0074002D0074028
:10248C003C80044010D0034000E0074001E00740CE
:10249C0003E0074080380100448004400070044091
:1024AC00048004403880044048900440FFF8FFFE4C
:1024BC004C90044008400640004006400640064050
:1024CC000140064003400640005006400C400640C8
:1024DC0028B17A4801687A480140784801600A9925
:1024EC00784801707848007800F0BF01C9B20698AE
:1024FC0000F0FD00014374480170019973480170AC
:10250C000B99734801700F98072805D1059840F076
:10251C0080017048017002E005996E4801700698C0
:10252C0000F0040048B10B9800F0030028B96A4889
:10253C00007800F0020000B9F9E7059800F00400FB
:10254C0038B16548007800F01000002800D1F8E799
:10255C0005E06148007800F0100000B1F9E7079839
:10256C0000F0E0015D48007800F01F0001435B487B
:10257C000170089800F0BF0159480170099800F0EB
:10258C00BF0158480170089800F0400028B1544829
:10259C00007840F04001524801700F98052806D190
:1025AC004948007840F00201474801701BE00F9841
:1025BC00062803D00F98072800D014E0494800786B
:1025CC0040F04001474801704348007800F040005B
:1025DC0000B9F9E70F98072805D13E48007800F0BC
:1025EC003F013C4801700F9818B10F98032800D098
:1025FC002CE03948007800F00C0000B1F9E73A48BB
:10260C00006840F00101384801604FF00001374884
:10261C0001604FF08001364801604FF005013548EC
:10262C0001604FF00101324801603148006800F050
:10263C00800000B9F9E700212D4801602A480168A3
:10264C006FF001000140284801602AE00F98012832
:10265C0003D00F98022800D007E01F48007800F044
:10266C000C00042800D0F8E71BE00F98042806D0D3
:10267C000F98062803D00F98052800D007E01648BD
:10268C00007800F00C00082800D0F8E709E00F985B
:10269C00072806D11048007800F00C000C2800D058
:1026AC00F8E7154801686FF00F0001400C9800F036
:1026BC000F0001431048016010B070474C9004406B
:1026CC00FFF8FFFE0840064001400640005006405F
:1026DC000C400640004006400640064003400640C1
:1026EC000440064005400640388004400800044081
:0C26FC000000044004000440488004403A
:1021A40081B002490248016001B07047C0D4010007
:0421B4005800FF1FB1
:0821700081B0FEE701B07047E9
:1021780081B072B60849086840F47000086000BF72
:1021880000BF00BF00BFF1EE100A40F44000E1EECE
:0C219800100A62B601B0704788ED00E04C
:1029600000B5DFF824B0DFF824A0DFF824C0FFF7BB
:10297000F5FBDFF820B0DFF820A0DFF820C0FFF77C
:10298000EDFB00BD704700BF0000FF1F3700FF1FB9
:10299000182900003800FF1F4800FF1F50290000C1
:1029FC0000B5DFF810B0DFF810A0FFF78BFB00BDBF
:0C2A0C00704700BF0000FF1F9000FF1F7C
:100400000000000000000000FFFFFFFF02FDFFFFF3
:102708003103000030030000FFFFFFFF000000005E
:1027180000000000000000000000000000000000B1
:1027280000000000000000000000000000000000A1
:10273800000000000000080000000800FFFFFFFF85
:102748000000000000000000000000000000000081
:102758000000000000000000000000000000000071
:0C27680000000000000000000000000065
:102774005103000050030000FFFFFFFF00000000B2
:102784000000000000000000000000000000000045
:102794000000000000000000000000000000000035
:1027A400000000000000080000000800FFFFFFFF19
:1027B4000000000000000000000000000000000015
:1027C4000000000000000000000000000000000005
:0C27D400000000000000000000000000F9
:1027E0006303000062030000FFFFFFFF0000000022
:1027F00000000000000000000000000000000000D9
:1028000000000000000000000000000000000000C8
:10281000000000000000080000000800FFFFFFFFAC
:1028200000000000000000000000000000000000A8
:102830000000000000000000000000000000000098
:0C2840000000000000000000000000008C
:10284C0004030000FFFFFFFFFFFFFFFF000000007D
:10285C00000000000000000000000000000000006C
:10286C00000000000000000000000000000000005C
:10287C000000000000000800FFFFFFFFFFFFFFFF4C
:10288C00000000000000000000000000000000003C
:10289C00000000000000000000000000000000002C
:0C28AC0000000000000000000000000020
:1028B800FFFFFFFFFFFFFFFFFFFFFFFFFFFFFFFF20
:1028C800FFFFFFFFFFFFFFFFFFFFFFFFFFFFFFFF10
:1028D800FFFFFFFFFFFFFFFFFFFFFFFFFFFFFFFF00
:1028E800FFFFFFFFFFFFFFFFFFFFFFFFFFFFFFFFF0
:1028F800FFFFFFFFFFFFFFFFFFFFFFFFFFFFFFFFE0
:10290800FFFFFFFFFFFFFFFFFFFFFFFFFFFFFFFFCF
:02291800007D40
:10291A003E203E203E2061707020696E69742064FA
:0A292A006F6E65203C203C203C004D
:102934003E203E203E2073797320696E69742064C2
:0A2944006F6E65203C203C203C0033
:01294E000088
:10295000008003400090034000A0034000900B4023
:00000001FF
