:100000000EEF07F00000000000EF00F0000000001D
:0A0010000000000000000000F3D71C
:0E001C00000176B102D08B9C01D08B8C1200BB
:0E002A00000176B102D08B9601D08B861200B9
:0E003800000176B102D08B9601D08B861200AB
:0E004600000176B102D0899201D089821200A9
:0E005400000176B102D08B9A01D08B8A120087
:0E006200000176B102D08D9601D08D8612007D
:0E007000000176B102D0899801D08988120073
:0E007E00000176B102D08B9E01D08B8E120055
:0E008C00000176B102D08B9601D08B86120057
:0E009A00ACB202D00000FCD776C0ADFF120061
:1000A8000F0121B302D00000FBD776C01CFF12005D
:0E00B800000176B102D0899001D0898012003B
:0E00C600000176B102D08B9801D08B88120019
:0E00D400000176B102D08D9201D08D82120013
:0E00E200000176B102D08B9A01D08B8A1200F9
:0E00F000000176B102D08B9801D08B881200EF
:0E00FE00000176B102D08B9601D08B861200E5
:0E010C00000176B102D08B9E01D08B8E1200C6
:0E011A00000176B102D08B9A01D08B8A1200C0
:0E012800000176B102D08B9801D08B881200B6
:0E013600000176B102D08A9001D08A801200BA
:0E014400000176B102D08B9201D08B821200A6
:0E015200000176B102D08F9401D08F8412008C
:0E016000000176B102D08A9401D08A84120088
:0E016E00000176B102D08F9001D08F80120078
:0E017C00000176B102D08B9601D08B86120066
:0E018A00000176B102D08D9401D08D84120058
:0E019800000176B102D08F9201D08F8212004A
:0E01A600000176B102D0899401D08984120044
:0E01B400000176B102D08B9801D08B8812002A
:0E01C200000176B102D08B9C01D08B8C120014
:0E01D000000176B102D08B9801D08B8812000E
:0E01DE00000176B102D08B9801D08B88120000
:0E01EC00000176B102D08B9001D08B80120002
:0E01FA00000176B102D08B9601D08B861200E8
:0E020800000176B102D08B9401D08B841200DD
:0E021600000176B102D08D9001D08D801200D3
:0E022400000176B102D08A9201D08A821200C7
:10023200A80E0001696F000E6A6F760E6B6F000EDA
:100242006C6FFF0E656FFF0E666F000E676F000E1C
:10025200686FFF0E596EFF0E5A6E000E5B6E000E37
:100262005C6EFF0E4F6EFF0E506E000E516E000E52
:10027200526E0F01218B900E226F98849892A4AA3D
:0A02820003D01DCF00F0FBD71200DF
:10028C009A0E0001696F000E6A6F760E6B6F000E8E
:10029C006C6FFF0E656FFF0E666F000E676F000EC2
:1002AC00686FFF0E596EFF0E5A6E000E5B6E000EDD
:1002BC005C6EFF0E4F6EFF0E506E000E516E000EF8
:1002CC00526EAC8A900EAB6E948E949C9EAA03D008
:0802DC00AECF00F0FBD71200C9
:1002E4000B6A0A6A096A00500402F4CF09F0F3CFDA
:1002F40008F001500502F4CF0BF0F3CF0AF00050E0
:100304000502F3500926F4500A22E86A0B22015030
:100314000402F3500926F4500A22E86A0B2208C0AA
:1003240000F009C001F00AC002F00BC003F0120093
:10033400F250026EF29E0500FF6A0150FE6E0050FC
:08034400FD6E02BEF28E1200F4
:10034C0038D00F0120870D0E1F6F040E1E6F2185F4
:10035C006ADF7ED00F012087060E1F6F820E1E6F84
:10036C00218561DF75D00F012087030E1F6F400EB2
:10037C001E6F218558DF6CD00F012087010E1F6F77
:10038C00A00E1E6F21854FDF63D00F012087010E59
:10039C001F6F150E1E6F218546DF5AD00F01208767
:1003AC001F6B8A0E1E6F21853EDF52D0060E006E2B
:1003BC0059D0000E006E0001751908E10050741937
:1003CC0005E1120E731902E17251C00ABAE0000E77
:1003DC00006E751908E10050741905E1250E7319AA
:1003EC0002E17251800AB6E0000E006E751908E148
:1003FC000050741905E14B0E731902E17251000A99
:10040C00B2E0000E006E751908E10050741905E198
:10041C00960E731902E17251000AAEE0000E006EE6
:10042C00751908E10050741905E1E10E731902E128
:10043C007251000AAAE07551000A08E17451010AD0
:10044C0005E17351C20A02E17251000AA7E0AED76E
:10045C000001A80E616F000E626F760E636F000EC6
:06046C00646F006A12003B
:1004720063C0E1FF64C0E2FF72C0E9FF73C0EAFF3C
:10048200EECFE6FF61C000F062C001F052DF006A09
:02049200120056
:1004940021D0CF0EAF6EAC94F7DE6BD0670EAF6E8B
:1004A400AC94F2DE66D0CF0EAF6EAC84EDDE61D0DC
:1004B400670EAF6EAC84E8DE5CD0440EAF6EAC84E5
:1004C400E3DE57D0220EAF6EAC84DEDE52D0060ED1
:1004D400006E58D00001000E006E751908E100503E
:1004E400741905E1120E731902E17251C00AD1E0C8
:1004F400000E006E751908E10050741905E1250E0F
:10050400731902E17251800AC9E0000E006E751978
:1005140008E10050741905E14B0E731902E17251A0
:10052400000AC1E0000E006E751908E1005074194C
:1005340005E1960E731902E17251000AB9E0000E4A
:10054400006E751908E10050741905E1E10E731984
:1005540002E17251000AB1E07551000A08E17451D8
:10056400010A05E17351C20A02E17251000AAAE0CC
:10057400AED79A0E616F000E626F760E636F000E37
:06058400646F006A120022
:10058A0059D0000173B102D0929201D092820F0128
:10059A00259376D0000173B102D0929801D0928847
:1005AA006FD0000173B102D0969201D0968268D0C2
:1005BA00000173B102D0949601D0948661D00001F3
:1005CA0073B102D0949801D094885AD0000173B1C3
:1005DA0002D0949A01D0948A53D0000173B102D008
:1005EA00949401D094844CD0000173B102D09392B8
:1005FA0001D0938245D0000173B102D0949E01D0FC
:10060A00948E3ED0000173B102D0949C01D0948C98
:10061A0037D0000173B102D0949601D0948630D0BD
:10062A00000173B102D0949801D0948829D0010EA8
:10063A00006E28D000017251000AA3E07251010A2B
:10064A00A9E07251020AADE07251030AB1E0725197
:10065A00040AB5E07251050AB9E07251060ABDE012
:10066A007251070AC1E07251080AC5E07251090ABB
:10067A00C9E072510A0ACDE072510B0AD1E0D7D70C
:06068A00000E006E1200DC
:1006900059D0000173B102D0929001D092800F0125
:1006A000259176D0000173B102D0949001D094804E
:1006B0006FD0000173B102D0969001D0968068D0BF
:1006C000000173B102D0949601D0948661D00001EC
:1006D00073B102D0949801D094885AD0000173B1BC
:1006E00002D0949A01D0948A53D0000173B102D001
:1006F000949201D094824CD0000173B102D09390B7
:1007000001D0938045D0000173B102D0949E01D0F6
:10071000948E3ED0000173B102D0949C01D0948C91
:1007200037D0000173B102D0949601D0948630D0B6
:10073000000173B102D0949801D0948829D0010EA1
:10074000006E28D000017251000AA3E07251010A24
:10075000A9E07251020AADE07251030AB1E0725190
:10076000040AB5E07251050AB9E07251060ABDE00B
:100770007251070AC1E07251080AC5E07251090AB4
:10078000C9E072510A0ACDE072510B0AD1E0D7D705
:06079000000E006E1200D5
:100796005DD0000173B102D0929401D092840F0112
:1007A60025957AD0000173B102D0969601D096862F
:1007B60073D0000173B102D0969401D096846CD0A8
:1007C600000173B102D0949601D0948665D00001E1
:1007D60073B102D0949801D094885ED0000173B1B1
:1007E60002D0949A01D0948A57D0000173B102D0F6
:1007F600989001D0988050D0000173B102D09394A4
:1008060001D0938449D0000173B102D0989401D0ED
:1008160098840F01239540D0000173B102D09892BD
:1008260001D098820F01239337D0000173B102D013
:10083600949601D0948630D0000173B102D094987A
:1008460001D0948829D0010E006E28D00001725183
:10085600000A9FE07251010AA5E07251020AA9E05E
:100866007251030AADE07251040AB1E07251050AF1
:10087600B5E07251060AB9E07251070ABDE072513D
:10088600080AC1E07251090AC7E072510A0ACDE0AE
:0E08960072510B0AD1E0D7D7000E006E12008F
:1008A40021D0CF0EAF6EAC94EFDC6BD0670EAF6E81
:1008B400AC94EADC66D0CF0EAF6EAC84E5DC61D0DC
:1008C400670EAF6EAC84E0DC5CD0440EAF6EAC84DB
:1008D400DBDC57D0220EAF6EAC84D6DC52D0060ED1
:1008E400006E58D00001000E006E751908E100502A
:1008F400741905E1120E731902E17251C00AD1E0B4
:10090400000E006E751908E10050741905E1250EFA
:10091400731902E17251800AC9E0000E006E751964
:1009240008E10050741905E14B0E731902E172518C
:10093400000AC1E0000E006E751908E10050741938
:1009440005E1960E731902E17251000AB9E0000E36
:10095400006E751908E10050741905E1E10E731970
:1009640002E17251000AB1E07551000A08E17451C4
:10097400010A05E17351C20A02E17251000AAAE0B8
:10098400AED79A0E616F000E626F760E636F000E23
:06099400646F006A12000E
:10099A0021D0CF0EAF6EAC9474DC6BD0670EAF6E05
:1009AA00AC946FDC66D0CF0EAF6EAC846ADC61D0DB
:1009BA00670EAF6EAC8465DC5CD0440EAF6EAC845F
:1009CA0060DC57D0220EAF6EAC845BDC52D0060ED0
:1009DA00006E58D00001000E006E751908E1005033
:1009EA00741905E1120E731902E17251C00AD1E0BD
:1009FA00000E006E751908E10050741905E1250E04
:100A0A00731902E17251800AC9E0000E006E75196D
:100A1A0008E10050741905E14B0E731902E1725195
:100A2A00000AC1E0000E006E751908E10050741941
:100A3A0005E1960E731902E17251000AB9E0000E3F
:100A4A00006E751908E10050741905E1E10E731979
:100A5A0002E17251000AB1E07551000A08E17451CD
:100A6A00010A05E17351C20A02E17251000AAAE0C1
:100A7A00AED79A0E616F000E626F760E636F000E2C
:060A8A00646F006A120017
:100A9000300E00017225006E000E7321016E000EF3
:100AA0007421026E1C0E0024F66E000E0120F76EFB
:100AB000000E0220F86E0900F5CF53F00900F5CFC3
:100AC00054F00900F5CF55F00900F5CF56F0180E97
:100AD0007225F66E000E7321F76E000E7421F86E0B
:100AE0000900F5CF4BF00900F5CF4CF00900F5CF28
:0A0AF0004DF00900F5CF4EF01200A2
:0C0AFA009492CA840C0E0F014E131200DF
:0A0B06000F014F6B4E994E9B120039
:100B1000CB50010F006E016A000E012272C004F07A
:100B2000000E056E72EC01F0060E026E00C004F0BD
:100B300001C005F0025005E005320432059EFF0FAA
:100B4000FAD7040E016E04C000F0015004E0003634
:100B50000090FF0FFBD7300E0014036E04C000F0AE
:100B600005C001F001320032019E01320032019EC7
:100B700000C04FFF0F0E0F014E1703504E1312000F
:100B80002CD06EC072F06FC073F070C074F071C082
:100B900075F003DF30D06EC072F06FC073F070C0BC
:100BA00074F071C075F07EDE26D06EC072F06FC03A
:100BB00073F070C074F071C075F0A6EC01F01BD03A
:100BC0006EC072F06FC073F070C074F071C075F0D9
:100BD00061DC11D0010E006E0ED000016D51000AD3
:100BE000D0E06D51010AD7E06D51020ADEE06D518F
:080BF000100AE6E0EFD7120045
:100BF8005DC072F05EC073F05FC074F045DF120034
:100C080015D05EC072F05FC073F03EDD19D05EC0D3
:100C180072F05FC073F0B5DC13D05EC072F05FC0D5
:100C280073F0B5DD0DD0010E006E0AD05D50000ADC
:100C3800E8E05D50010AEBE05D50020AEEE0F3D710
:020C4800120098
:100C4A00CA80CA82C70ECB6E59DF006A016A1200D7
:080C5A005DC072F058DF1200CA
:100C62005DC06DF05EC06EF00D0E0001606F0A0E89
:100C72006F6F3AD06DC072F06EC073F039EC02F053
:100C82003DD06DC0E9FF6EC0EAFFEE520AE06DC0D2
:100C920072F06EC073F039EC02F000016D4B6E2BF6
:100CA200F0D72CD06DC0E9FF6EC0EAFFEE520AE029
:100CB2006DC072F06EC073F039EC02F000016D4B42
:100CC2006E2BF0D70001600E726F000E736F39EC5D
:100CD20002F06F0E0001726F000E736F39EC02F0BA
:100CE2000DD0060E006E0BD05F50000AC3E05F50BD
:100CF200010AC7E05F50020AD5E0F3D7006A12008A
:040D0200FBDE120002
:100D06005D6A070E5E6E010E5F6E7BDF5D6A060E24
:100D16005E6E5F6A76DF100E00016D6F800E6E6F7D
:100D2600250E6F6F000E706F716F27DF090E0B6E49
:100D36001E0E0C6EE40E0D6E0D2EFED70C2EFCD77D
:100D46000B2EFAD70000150E5D6E000E5E6E020EBB
:060D56005F6E84DF120055
:100D5C000900F5CFE6FF0006FBE10106F9E1120000
:100D6C00576A586A000E585C02E1FF0E575C10E29D
:100D7C0057C05DF058C05EF06ADF3F0E0C6E550E2A
:100D8C000D6E0D2EFED70C2EFCD7574A582AEAD7DB
:100D9C00FF0E576E000E586E000E006E5850005C21
:100DAC0002E15750000812E257C05DF058C05EF0E7
:100DBC004EDF3F0E0C6E550E0D6E0D2EFED70C2E0B
:0E0DCC00FCD7010E575E000E585AE6D71200F3
:100DDA002A0E5D6E0E0E5E6E000E5F6E08DF2FC06D
:100DEA005DF030C05EF02CDF290E0B6E960E0C6E95
:100DFA007F0E0D6E0D2EFED70C2EFCD70B2EFAD7BA
:100E0A007BDF310E5D6E000E5E6E020E5F6E24DFBA
:020E1A001200C4
:0E0E1C0060EC07F072DFDBDFA3DFFED7FFD74D
:100EC00010EE15F0360E006E010E016E8A0EF66EF3
:0E0ED0000E0EF76E000EF86EAEEC06F012007D
:100E2A00B8007600EC017600160276008C00760097
:100E3A00280176001A017600440176003601760010
:100E4A000C017600C2017600FA017600C60076002F
:100E5A00FFFFFFFFFFFFFFFFFFFFFFFFFFFFFFFF98
:100E6A00FFFFFFFFFFFFFFFFFFFFFFFFFFFFFFFF88
:100E7A00FFFFFFFFFFFFFFFFFFFFFFFFFFFFFFFF78
:100E8A003E203E203E2073797320696E6974206487
:0A0E9A006F6E65203C203C203C00F8
:020EA4008813B1
:100EA6003E203E203E2061707020696E6974206489
:0A0EB6006F6E65203C203C203C00DC
:020000040030CA
:0E00000015137F7CF98B91FFFFC0FFE0FF40DE
:00000001FF
